{
  "contractName": "Filesystem",
  "abi": [
    {
      "constant": true,
      "inputs": [
        {
          "name": "id",
          "type": "bytes32"
        }
      ],
      "name": "getNameHash",
      "outputs": [
        {
          "name": "",
          "type": "bytes32"
        }
      ],
      "payable": false,
      "stateMutability": "view",
      "type": "function"
    },
    {
      "constant": false,
      "inputs": [
        {
          "name": "id",
          "type": "bytes32"
        },
        {
          "name": "sz",
          "type": "uint256"
        }
      ],
      "name": "setSize",
      "outputs": [],
      "payable": false,
      "stateMutability": "nonpayable",
      "type": "function"
    },
    {
      "constant": false,
      "inputs": [
        {
          "name": "id",
          "type": "bytes32"
        },
        {
          "name": "loc",
          "type": "uint256"
        },
        {
          "name": "v",
          "type": "bytes32"
        }
      ],
      "name": "setLeaf",
      "outputs": [],
      "payable": false,
      "stateMutability": "nonpayable",
      "type": "function"
    },
    {
      "constant": false,
      "inputs": [
        {
          "name": "id",
          "type": "bytes32"
        },
        {
          "name": "a",
          "type": "address"
        }
      ],
      "name": "forwardData",
      "outputs": [],
      "payable": false,
      "stateMutability": "nonpayable",
      "type": "function"
    },
    {
      "constant": true,
      "inputs": [
        {
          "name": "id",
          "type": "bytes32"
        }
      ],
      "name": "getHash",
      "outputs": [
        {
          "name": "",
          "type": "string"
        }
      ],
      "payable": false,
      "stateMutability": "view",
      "type": "function"
    },
    {
      "constant": true,
      "inputs": [
        {
          "name": "id",
          "type": "bytes32"
        }
      ],
      "name": "getSize",
      "outputs": [
        {
          "name": "",
          "type": "uint256"
        }
      ],
      "payable": false,
      "stateMutability": "view",
      "type": "function"
    },
    {
      "constant": false,
      "inputs": [
        {
          "name": "id",
          "type": "bytes32"
        },
        {
          "name": "file",
          "type": "string"
        },
        {
          "name": "init",
          "type": "bytes32"
        }
      ],
      "name": "finalizeBundleIPFS",
      "outputs": [],
      "payable": false,
      "stateMutability": "nonpayable",
      "type": "function"
    },
    {
      "constant": false,
      "inputs": [
        {
          "name": "num",
          "type": "uint256"
        },
        {
          "name": "code",
          "type": "address"
        },
        {
          "name": "code_init",
          "type": "bytes32"
        },
        {
          "name": "file_id",
          "type": "bytes32"
        }
      ],
      "name": "makeSimpleBundle",
      "outputs": [
        {
          "name": "",
          "type": "bytes32"
        }
      ],
      "payable": false,
      "stateMutability": "nonpayable",
      "type": "function"
    },
    {
      "constant": true,
      "inputs": [
        {
          "name": "id",
          "type": "bytes32"
        }
      ],
      "name": "getName",
      "outputs": [
        {
          "name": "",
          "type": "string"
        }
      ],
      "payable": false,
      "stateMutability": "view",
      "type": "function"
    },
    {
      "constant": true,
      "inputs": [
        {
          "name": "id",
          "type": "bytes32"
        }
      ],
      "name": "getData",
      "outputs": [
        {
          "name": "",
          "type": "bytes32[]"
        }
      ],
      "payable": false,
      "stateMutability": "view",
      "type": "function"
    },
    {
      "constant": false,
      "inputs": [
        {
          "name": "name",
          "type": "string"
        },
        {
          "name": "size",
          "type": "uint256"
        },
        {
          "name": "hash",
          "type": "string"
        },
        {
          "name": "root",
          "type": "bytes32"
        },
        {
          "name": "nonce",
          "type": "uint256"
        }
      ],
      "name": "addIPFSFile",
      "outputs": [
        {
          "name": "",
          "type": "bytes32"
        }
      ],
      "payable": false,
      "stateMutability": "nonpayable",
      "type": "function"
    },
    {
      "constant": true,
      "inputs": [
        {
          "name": "bid",
          "type": "bytes32"
        }
      ],
      "name": "getInitHash",
      "outputs": [
        {
          "name": "",
          "type": "bytes32"
        }
      ],
      "payable": false,
      "stateMutability": "view",
      "type": "function"
    },
    {
      "constant": true,
      "inputs": [
        {
          "name": "bid",
          "type": "bytes32"
        }
      ],
      "name": "getIPFSCode",
      "outputs": [
        {
          "name": "",
          "type": "string"
        }
      ],
      "payable": false,
      "stateMutability": "view",
      "type": "function"
    },
    {
      "constant": false,
      "inputs": [
        {
          "name": "id",
          "type": "bytes32"
        },
        {
          "name": "arr",
          "type": "bytes32[]"
        },
        {
          "name": "loc",
          "type": "uint256"
        },
        {
          "name": "len",
          "type": "uint256"
        }
      ],
      "name": "setLeafs",
      "outputs": [],
      "payable": false,
      "stateMutability": "nonpayable",
      "type": "function"
    },
    {
      "constant": true,
      "inputs": [
        {
          "name": "id",
          "type": "bytes32"
        }
      ],
      "name": "getRoot",
      "outputs": [
        {
          "name": "",
          "type": "bytes32"
        }
      ],
      "payable": false,
      "stateMutability": "view",
      "type": "function"
    },
    {
      "constant": true,
      "inputs": [
        {
          "name": "id",
          "type": "bytes32"
        },
        {
          "name": "loc",
          "type": "uint256"
        }
      ],
      "name": "getLeaf",
      "outputs": [
        {
          "name": "",
          "type": "bytes32"
        }
      ],
      "payable": false,
      "stateMutability": "view",
      "type": "function"
    },
    {
      "constant": false,
      "inputs": [
        {
          "name": "id",
          "type": "bytes32"
        },
        {
          "name": "sz",
          "type": "uint256"
        }
      ],
      "name": "setByteSize",
      "outputs": [
        {
          "name": "",
          "type": "uint256"
        }
      ],
      "payable": false,
      "stateMutability": "nonpayable",
      "type": "function"
    },
    {
      "constant": true,
      "inputs": [
        {
          "name": "bid",
          "type": "bytes32"
        }
      ],
      "name": "getFiles",
      "outputs": [
        {
          "name": "",
          "type": "bytes32[]"
        }
      ],
      "payable": false,
      "stateMutability": "view",
      "type": "function"
    },
    {
      "constant": false,
      "inputs": [
        {
          "name": "name",
          "type": "string"
        },
        {
          "name": "nonce",
          "type": "uint256"
        }
      ],
      "name": "createFile",
      "outputs": [
        {
          "name": "",
          "type": "bytes32"
        }
      ],
      "payable": false,
      "stateMutability": "nonpayable",
      "type": "function"
    },
    {
      "constant": false,
      "inputs": [
        {
          "name": "id",
          "type": "bytes32"
        },
        {
          "name": "file",
          "type": "string"
        },
        {
          "name": "init",
          "type": "bytes32"
        }
      ],
      "name": "debug_finalizeBundleIPFS",
      "outputs": [
        {
          "name": "",
          "type": "bytes32"
        },
        {
          "name": "",
          "type": "bytes32"
        },
        {
          "name": "",
          "type": "bytes32"
        },
        {
          "name": "",
          "type": "bytes32"
        },
        {
          "name": "",
          "type": "bytes32"
        }
      ],
      "payable": false,
      "stateMutability": "nonpayable",
      "type": "function"
    },
    {
      "constant": true,
      "inputs": [
        {
          "name": "name",
          "type": "string"
        }
      ],
      "name": "hashName",
      "outputs": [
        {
          "name": "",
          "type": "bytes32"
        }
      ],
      "payable": false,
      "stateMutability": "pure",
      "type": "function"
    },
    {
      "constant": true,
      "inputs": [
        {
          "name": "id",
          "type": "bytes32"
        }
      ],
      "name": "getByteSize",
      "outputs": [
        {
          "name": "",
          "type": "uint256"
        }
      ],
      "payable": false,
      "stateMutability": "view",
      "type": "function"
    },
    {
      "constant": true,
      "inputs": [
        {
          "name": "num",
          "type": "uint256"
        }
      ],
      "name": "makeBundle",
      "outputs": [
        {
          "name": "",
          "type": "bytes32"
        }
      ],
      "payable": false,
      "stateMutability": "view",
      "type": "function"
    },
    {
      "constant": false,
      "inputs": [
        {
          "name": "id",
          "type": "bytes32"
        },
        {
          "name": "a",
          "type": "address"
        }
      ],
      "name": "debug_forwardData",
      "outputs": [
        {
          "name": "",
          "type": "uint256"
        }
      ],
      "payable": false,
      "stateMutability": "nonpayable",
      "type": "function"
    },
    {
      "constant": false,
      "inputs": [
        {
          "name": "name",
          "type": "string"
        },
        {
          "name": "nonce",
          "type": "uint256"
        },
        {
          "name": "arr",
          "type": "bytes32[]"
        },
        {
          "name": "sz",
          "type": "uint256"
        }
      ],
      "name": "createFileWithContents",
      "outputs": [
        {
          "name": "",
          "type": "bytes32"
        }
      ],
      "payable": false,
      "stateMutability": "nonpayable",
      "type": "function"
    },
    {
      "constant": true,
      "inputs": [
        {
          "name": "nonce",
          "type": "uint256"
        }
      ],
      "name": "calcId",
      "outputs": [
        {
          "name": "",
          "type": "bytes32"
        }
      ],
      "payable": false,
      "stateMutability": "view",
      "type": "function"
    },
    {
      "constant": true,
      "inputs": [
        {
          "name": "bid",
          "type": "bytes32"
        }
      ],
      "name": "getCode",
      "outputs": [
        {
          "name": "",
          "type": "bytes"
        }
      ],
      "payable": false,
      "stateMutability": "view",
      "type": "function"
    },
    {
      "constant": false,
      "inputs": [
        {
          "name": "id",
          "type": "bytes32"
        },
        {
          "name": "file_id",
          "type": "bytes32"
        }
      ],
      "name": "addToBundle",
      "outputs": [
        {
          "name": "",
          "type": "bytes32"
        }
      ],
      "payable": false,
      "stateMutability": "nonpayable",
      "type": "function"
    },
    {
      "inputs": [],
      "payable": false,
      "stateMutability": "nonpayable",
      "type": "constructor"
    }
  ],
  "bytecode": "0x606060405234156200001057600080fd5b6000601460008162000023919062000101565b5060006001026000808154811015156200003957fe5b90600052602060002090018160001916905550600190505b600080549050811015620000fa576000600182038154811015156200007257fe5b9060005260206000209001546000600183038154811015156200009157fe5b9060005260206000209001546040518083600019166000191681526020018260001916600019168152602001925050506040518091039020600082815481101515620000d957fe5b90600052602060002090018160001916905550808060010191505062000051565b5062000158565b8154818355818115116200012b578183600052602060002091820191016200012a919062000130565b5b505050565b6200015591905b808211156200015157600081600090555060010162000137565b5090565b90565b612bae80620001686000396000f30060606040526004361061016a576000357c0100000000000000000000000000000000000000000000000000000000900463ffffffff1680631dd1349d1461016f5780632aba5d67146101b25780632c1639a2146101e25780632e15ba631461021f5780633cf5040a146102655780633ec6dac2146103055780635308db4b14610340578063546b48b1146103b757806354b8d5e31461042f57806354f6127f146104cf57806357e7afd01461054b5780635b5191321461062657806364341c0c1461066957806382124bcd1461070957806384f94221146107825780638ec9a5de146107c55780639ef5233f14610811578063a22b5a1c14610855578063a26db042146108d1578063a4c089be14610953578063af9a3f9b14610a22578063afcac54614610a9b578063c2eb10a214610ad6578063c77c93bb14610b15578063d1a9f5be14610b6f578063e4bd9ebd14610c3a578063e8fe6b6614610c79578063f4246be414610d19575b600080fd5b341561017a57600080fd5b610194600480803560001916906020019091905050610d69565b60405180826000191660001916815260200191505060405180910390f35b34156101bd57600080fd5b6101e0600480803560001916906020019091908035906020019091905050610e31565b005b34156101ed57600080fd5b61021d60048080356000191690602001909190803590602001909190803560001916906020019091905050610e95565b005b341561022a57600080fd5b61026360048080356000191690602001909190803573ffffffffffffffffffffffffffffffffffffffff16906020019091905050611078565b005b341561027057600080fd5b61028a60048080356000191690602001909190505061125b565b6040518080602001828103825283818151815260200191508051906020019080838360005b838110156102ca5780820151818401526020810190506102af565b50505050905090810190601f1680156102f75780820380516001836020036101000a031916815260200191505b509250505060405180910390f35b341561031057600080fd5b61032a600480803560001916906020019091905050611321565b6040518082815260200191505060405180910390f35b341561034b57600080fd5b6103b560048080356000191690602001909190803590602001908201803590602001908080601f0160208091040260200160405190810160405280939291908181526020018383808284378201915050505050509190803560001916906020019091905050611349565b005b34156103c257600080fd5b610411600480803590602001909190803573ffffffffffffffffffffffffffffffffffffffff1690602001909190803560001916906020019091908035600019169060200190919050506115cc565b60405180826000191660001916815260200191505060405180910390f35b341561043a57600080fd5b610454600480803560001916906020019091905050611889565b6040518080602001828103825283818151815260200191508051906020019080838360005b83811015610494578082015181840152602081019050610479565b50505050905090810190601f1680156104c15780820380516001836020036101000a031916815260200191505b509250505060405180910390f35b34156104da57600080fd5b6104f460048080356000191690602001909190505061194f565b6040518080602001828103825283818151815260200191508051906020019060200280838360005b8381101561053757808201518184015260208101905061051c565b505050509050019250505060405180910390f35b341561055657600080fd5b610608600480803590602001908201803590602001908080601f0160208091040260200160405190810160405280939291908181526020018383808284378201915050505050509190803590602001909190803590602001908201803590602001908080601f0160208091040260200160405190810160405280939291908181526020018383808284378201915050505050509190803560001916906020019091908035906020019091905050611a2a565b60405180826000191660001916815260200191505060405180910390f35b341561063157600080fd5b61064b600480803560001916906020019091905050611afd565b60405180826000191660001916815260200191505060405180910390f35b341561067457600080fd5b61068e600480803560001916906020019091905050611b2a565b6040518080602001828103825283818151815260200191508051906020019080838360005b838110156106ce5780820151818401526020810190506106b3565b50505050905090810190601f1680156106fb5780820380516001836020036101000a031916815260200191505b509250505060405180910390f35b341561071457600080fd5b61078060048080356000191690602001909190803590602001908201803590602001908080602002602001604051908101604052809392919081815260200183836020028082843782019150505050505091908035906020019091908035906020019091905050611bf6565b005b341561078d57600080fd5b6107a7600480803560001916906020019091905050611c3c565b60405180826000191660001916815260200191505060405180910390f35b34156107d057600080fd5b6107f3600480803560001916906020019091908035906020019091905050611cc6565b60405180826000191660001916815260200191505060405180910390f35b341561081c57600080fd5b61083f600480803560001916906020019091908035906020019091905050611d25565b6040518082815260200191505060405180910390f35b341561086057600080fd5b61087a600480803560001916906020019091905050611d50565b6040518080602001828103825283818151815260200191508051906020019060200280838360005b838110156108bd5780820151818401526020810190506108a2565b505050509050019250505060405180910390f35b34156108dc57600080fd5b610935600480803590602001908201803590602001908080601f01602080910402602001604051908101604052809392919081815260200183838082843782019150505050505091908035906020019091905050611dd6565b60405180826000191660001916815260200191505060405180910390f35b341561095e57600080fd5b6109c860048080356000191690602001909190803590602001908201803590602001908080601f0160208091040260200160405190810160405280939291908181526020018383808284378201915050505050509190803560001916906020019091905050611ff5565b60405180866000191660001916815260200185600019166000191681526020018460001916600019168152602001836000191660001916815260200182600019166000191681526020019550505050505060405180910390f35b3415610a2d57600080fd5b610a7d600480803590602001908201803590602001908080601f016020809104026020016040519081016040528093929190818152602001838380828437820191505050505050919050506122cf565b60405180826000191660001916815260200191505060405180910390f35b3415610aa657600080fd5b610ac06004808035600019169060200190919050506122e5565b6040518082815260200191505060405180910390f35b3415610ae157600080fd5b610af7600480803590602001909190505061230d565b60405180826000191660001916815260200191505060405180910390f35b3415610b2057600080fd5b610b5960048080356000191690602001909190803573ffffffffffffffffffffffffffffffffffffffff16906020019091905050612374565b6040518082815260200191505060405180910390f35b3415610b7a57600080fd5b610c1c600480803590602001908201803590602001908080601f01602080910402602001604051908101604052809392919081815260200183838082843782019150505050505091908035906020019091908035906020019082018035906020019080806020026020016040519081016040528093929190818152602001838360200280828437820191505050505050919080359060200190919050506123a5565b60405180826000191660001916815260200191505060405180910390f35b3415610c4557600080fd5b610c5b60048080359060200190919050506123e4565b60405180826000191660001916815260200191505060405180910390f35b3415610c8457600080fd5b610c9e600480803560001916906020019091905050612446565b6040518080602001828103825283818151815260200191508051906020019080838360005b83811015610cde578082015181840152602081019050610cc3565b50505050905090810190601f168015610d0b5780820380516001836020036101000a031916815260200191505b509250505060405180910390f35b3415610d2457600080fd5b610d4b600480803560001916906020019091908035600019169060200190919050506124a2565b60405180826000191660001916815260200191505060405180910390f35b6000610e2a6001600084600019166000191681526020019081526020016000206003018054600181600116156101000203166002900480601f016020809104026020016040519081016040528092919081815260200182805460018160011615610100020316600290048015610e205780601f10610df557610100808354040283529160200191610e20565b820191906000526020600020905b815481529060010190602001808311610e0357829003601f168201915b50505050506122cf565b9050919050565b600060016000846000191660001916815260200190815260200160002090505b81816002016000815481101515610e6457fe5b9060005260206000209001805490501015610e8757610e82836124fa565b610e51565b818160000181905550505050565b600080600080600160008860001916600019168152602001908152602001600020935084846002016000815481101515610ecb57fe5b906000526020600020900187815481101515610ee357fe5b90600052602060002090018160001916905550600192505b836002018054905083101561106f57600286811515610f1657fe5b0495508360020160018403815481101515610f2d57fe5b906000526020600020900160028702815481101515610f4857fe5b90600052602060002090015491508360020160018403815481101515610f6a57fe5b906000526020600020900160016002880201815481101515610f8857fe5b9060005260206000209001549050600060010282600019161415610fc757600060018403815481101515610fb857fe5b90600052602060002090015491505b600060010281600019161415610ff857600060018403815481101515610fe957fe5b90600052602060002090015490505b81816040518083600019166000191681526020018260001916600019168152602001925050506040518091039020846002018481548110151561103757fe5b90600052602060002090018781548110151561104f57fe5b906000526020600020900181600019169055508280600101935050610efb565b50505050505050565b60006110826129ab565b6000600160008660001916600019168152602001908152602001600020925082600001546040518059106110b35750595b908082528060200260200182016040525091506000836002018054905014156110db57611254565b600090505b826000015481108015611112575082600201600081548110151561110057fe5b90600052602060002090018054905081105b156111805782600201600081548110151561112957fe5b90600052602060002090018181548110151561114157fe5b906000526020600020900154828281518110151561115b57fe5b90602001906020020190600019169081600019168152505080806001019150506110e0565b8373ffffffffffffffffffffffffffffffffffffffff16637d436d7686846040518363ffffffff167c010000000000000000000000000000000000000000000000000000000002815260040180836000191660001916815260200180602001828103825283818151815260200191508051906020019060200280838360005b8381101561121a5780820151818401526020810190506111ff565b505050509050019350505050600060405180830381600087803b151561123f57600080fd5b6102c65a03f1151561125057600080fd5b5050505b5050505050565b6112636129bf565b6001600083600019166000191681526020019081526020016000206004018054600181600116156101000203166002900480601f0160208091040260200160405190810160405280929190818152602001828054600181600116156101000203166002900480156113155780601f106112ea57610100808354040283529160200191611315565b820191906000526020600020905b8154815290600101906020018083116112f857829003601f168201915b50505050509050919050565b6000600160008360001916600019168152602001908152602001600020600001549050919050565b60006113536129ab565b61135b6129ab565b6113636129ab565b6000600260008960001916600019168152602001908152602001600020945084600701805490506040518059106113975750595b9080825280602002602001820160405250935084600701805490506040518059106113bf5750595b9080825280602002602001820160405250925084600701805490506040518059106113e75750595b90808252806020026020018201604052509150600090505b846007018054905081101561150757611433856007018281548110151561142257fe5b9060005260206000209001546122e5565b600102848281518110151561144457fe5b906020019060200201906000191690816000191681525050611489611484866007018381548110151561147357fe5b906000526020600020900154611889565b6122cf565b838281518110151561149757fe5b9060200190602002019060001916908160001916815250506114d485600701828154811015156114c357fe5b906000526020600020900154611c3c565b82828151811015156114e257fe5b90602001906020020190600019169081600019168152505080806001019150506113ff565b8685600501908051906020019061151f9291906129d3565b508561152e8560006004612735565b61153b8560006004612735565b61156c85600060047fad3228b676f7d3cd4284a5443f17f1962b36e491b30a40b2405849e597ba5fb56001026127cb565b60405180856000191660001916815260200184600019166000191681526020018360001916600019168152602001826000191660001916815260200194505050505060405180910390208560060181600019169055505050505050505050565b6000806000806000806000338b604051808373ffffffffffffffffffffffffffffffffffffffff1673ffffffffffffffffffffffffffffffffffffffff166c0100000000000000000000000002815260140182815260200192505050604051809103902095506002600087600019166000191681526020019081526020016000209450898560040160006101000a81548173ffffffffffffffffffffffffffffffffffffffff021916908373ffffffffffffffffffffffffffffffffffffffff16021790555061169b88611321565b6001029350600092505b600383101561170557836000848154811015156116be57fe5b9060005260206000209001546040518083600019166000191681526020018260001916600019168152602001925050506040518091039020935082806001019350506116a5565b61171661171189611889565b6122cf565b9150600092505b600383101561177d578160008481548110151561173657fe5b90600052602060002090015460405180836000191660001916815260200182600019166000191681526020019250505060405180910390209150828060010193505061171d565b61178688611c3c565b9050600092505b60038310156117ed57806000848154811015156117a657fe5b90600052602060002090015460405180836000191660001916815260200182600019166000191681526020019250505060405180910390209050828060010193505061178d565b88848383604051808560001916600019168152602001846000191660001916815260200183600019166000191681526020018260001916600019168152602001945050505050604051809103902085600601816000191690555084600701805480600101828161185d9190612a53565b916000526020600020900160008a90919091509060001916905550859650505050505050949350505050565b6118916129bf565b6001600083600019166000191681526020019081526020016000206003018054600181600116156101000203166002900480601f0160208091040260200160405190810160405280929190818152602001828054600181600116156101000203166002900480156119435780601f1061191857610100808354040283529160200191611943565b820191906000526020600020905b81548152906001019060200180831161192657829003601f168201915b50505050509050919050565b6119576129ab565b60006119616129ab565b6000600160008660001916600019168152602001908152602001600020925082600001546040518059106119925750595b90808252806020026020018201604052509150600090505b8260000154811015611a1f578260020160008154811015156119c857fe5b9060005260206000209001818154811015156119e057fe5b90600052602060002090015482828151811015156119fa57fe5b90602001906020020190600019169081600019168152505080806001019150506119aa565b819350505050919050565b60008060003384604051808373ffffffffffffffffffffffffffffffffffffffff1673ffffffffffffffffffffffffffffffffffffffff166c010000000000000000000000000281526014018281526020019250505060405180910390209150600160008360001916600019168152602001908152602001600020905086816000018190555087816003019080519060200190611ac89291906129d3565b5085816004019080519060200190611ae19291906129d3565b5084816005018160001916905550819250505095945050505050565b60008060026000846000191660001916815260200190815260200160002090508060060154915050919050565b611b326129bf565b60006002600084600019166000191681526020019081526020016000209050806005018054600181600116156101000203166002900480601f016020809104026020016040519081016040528092919081815260200182805460018160011615610100020316600290048015611be95780601f10611bbe57610100808354040283529160200191611be9565b820191906000526020600020905b815481529060010190602001808311611bcc57829003601f168201915b5050505050915050919050565b60008090505b81811015611c3557611c28858285018684815181101515611c1957fe5b90602001906020020151610e95565b8080600101915050611bfc565b5050505050565b60008060016000846000191660001916815260200190815260200160002090506000600102816005015460001916141515611c7d5780600501549150611cc0565b806002016001826002018054905003815481101515611c9857fe5b90600052602060002090016000815481101515611cb157fe5b90600052602060002090015491505b50919050565b6000806001600085600019166000191681526020019081526020016000209050806002016000815481101515611cf857fe5b906000526020600020900183815481101515611d1057fe5b90600052602060002090015491505092915050565b6000816001600085600019166000191681526020019081526020016000206001018190555092915050565b611d586129ab565b6000600260008460001916600019168152602001908152602001600020905080600701805480602002602001604051908101604052809291908181526020018280548015611dc957602002820191906000526020600020905b81546000191681526020019060010190808311611db1575b5050505050915050919050565b60008060003384604051808373ffffffffffffffffffffffffffffffffffffffff1673ffffffffffffffffffffffffffffffffffffffff166c010000000000000000000000000281526014018281526020019250505060405180910390209150600160008360001916600019168152602001908152602001600020905060028160020181611e649190612a7f565b506002816002016000815481101515611e7957fe5b906000526020600020900181611e8f9190612aab565b506001816002016001815481101515611ea457fe5b906000526020600020900181611eba9190612aab565b50600080815481101515611eca57fe5b906000526020600020900154816002016000815481101515611ee857fe5b90600052602060002090016000815481101515611f0157fe5b90600052602060002090018160001916905550600080815481101515611f2357fe5b906000526020600020900154816002016000815481101515611f4157fe5b90600052602060002090016001815481101515611f5a57fe5b9060005260206000209001816000191690555060006001815481101515611f7d57fe5b906000526020600020900154816002016001815481101515611f9b57fe5b90600052602060002090016000815481101515611fb457fe5b906000526020600020900181600019169055506000816000018190555084816003019080519060200190611fe99291906129d3565b50819250505092915050565b6000806000806000806120066129ab565b61200e6129ab565b6120166129ab565b6000600260008e600019166000191681526020019081526020016000209450846007018054905060405180591061204a5750595b9080825280602002602001820160405250935084600701805490506040518059106120725750595b90808252806020026020018201604052509250846007018054905060405180591061209a5750595b90808252806020026020018201604052509150600090505b84600701805490508110156121ba576120e685600701828154811015156120d557fe5b9060005260206000209001546122e5565b60010284828151811015156120f757fe5b90602001906020020190600019169081600019168152505061213c612137866007018381548110151561212657fe5b906000526020600020900154611889565b6122cf565b838281518110151561214a57fe5b906020019060200201906000191690816000191681525050612187856007018281548110151561217657fe5b906000526020600020900154611c3c565b828281518110151561219557fe5b90602001906020020190600019169081600019168152505080806001019150506120b2565b8b8560050190805190602001906121d29291906129d3565b508a6121e18560006004612735565b6121ee8560006004612735565b61221f85600060047fad3228b676f7d3cd4284a5443f17f1962b36e491b30a40b2405849e597ba5fb56001026127cb565b8e61222d8960006004612735565b61223a8960006004612735565b61226b89600060047fad3228b676f7d3cd4284a5443f17f1962b36e491b30a40b2405849e597ba5fb56001026127cb565b6040518085600019166000191681526020018460001916600019168152602001836000191660001916815260200182600019166000191681526020019450505050506040518091039020995099509950995099505050505050939792965093509350565b60006122de8260006008612860565b9050919050565b6000600160008360001916600019168152602001908152602001600020600101549050919050565b6000803383604051808373ffffffffffffffffffffffffffffffffffffffff1673ffffffffffffffffffffffffffffffffffffffff166c01000000000000000000000000028152601401828152602001925050506040518091039020905080915050919050565b6000806001600085600019166000191681526020019081526020016000209050806002018054905091505092915050565b6000806123b28686611dd6565b90506123bf818551610e31565b6123cd818560008751611bf6565b6123d78184611d25565b5080915050949350505050565b60003382604051808373ffffffffffffffffffffffffffffffffffffffff1673ffffffffffffffffffffffffffffffffffffffff166c010000000000000000000000000281526014018281526020019250505060405180910390209050919050565b61244e612ad7565b6000600260008460001916600019168152602001908152602001600020905061249a8160040160009054906101000a900473ffffffffffffffffffffffffffffffffffffffff1661295d565b915050919050565b60008060026000856000191660001916815260200190815260200160002090508060070180548060010182816124d89190612a53565b9160005260206000209001600085909190915090600019169055505092915050565b6000806001600084600019166000191681526020019081526020016000209150600090505b8160020180549050811015612586576002826002018281548110151561254157fe5b90600052602060002090018054905002826002018281548110151561256257fe5b9060005260206000209001816125789190612aab565b50808060010191505061251f565b6000600183600201805490500381548110151561259f57fe5b9060005260206000209001548260020160018460020180549050038154811015156125c657fe5b906000526020600020900160018154811015156125df57fe5b906000526020600020900181600019169055508160020180548091906001016126089190612a7f565b50600182600201600184600201805490500381548110151561262657fe5b90600052602060002090018161263c9190612aab565b5081600201600283600201805490500381548110151561265857fe5b9060005260206000209001600081548110151561267157fe5b90600052602060002090015482600201600284600201805490500381548110151561269857fe5b906000526020600020900160018154811015156126b157fe5b906000526020600020900154604051808360001916600019168152602001826000191660001916815260200192505050604051809103902082600201600184600201805490500381548110151561270457fe5b9060005260206000209001600081548110151561271d57fe5b90600052602060002090018160001916905550505050565b600080821415612771578351831061275157600060010261276a565b838381518110151561275f57fe5b906020019060200201515b90506127c4565b61277f848460018503612735565b612795856001850360020a860160018603612735565b604051808360001916600019168152602001826000191660001916815260200192505050604051809103902090505b9392505050565b60008083141561280357845184106127e357816127fc565b84848151811015156127f157fe5b906020019060200201515b9050612858565b612812858560018603856127cb565b612829866001860360020a870160018703866127cb565b604051808360001916600019168152602001826000191660001916815260200192505050604051809103902090505b949350505050565b600080821415612903578351831061287c5760006001026128fc565b838381518110151561288a57fe5b9060200101517f010000000000000000000000000000000000000000000000000000000000000090047f0100000000000000000000000000000000000000000000000000000000000000027f010000000000000000000000000000000000000000000000000000000000000090046001025b9050612956565b612911848460018503612860565b612927856001850360020a860160018603612860565b604051808360001916600019168152602001826000191660001916815260200192505050604051809103902090505b9392505050565b612965612ad7565b600061296f612ad7565b833b9150816040518059106129815750595b9080825280601f01601f1916602001820160405250905081600060208301863c8092505050919050565b602060405190810160405280600081525090565b602060405190810160405280600081525090565b828054600181600116156101000203166002900490600052602060002090601f016020900481019282601f10612a1457805160ff1916838001178555612a42565b82800160010185558215612a42579182015b82811115612a41578251825591602001919060010190612a26565b5b509050612a4f9190612aeb565b5090565b815481835581811511612a7a57818360005260206000209182019101612a799190612b10565b5b505050565b815481835581811511612aa657818360005260206000209182019101612aa59190612b35565b5b505050565b815481835581811511612ad257818360005260206000209182019101612ad19190612b10565b5b505050565b602060405190810160405280600081525090565b612b0d91905b80821115612b09576000816000905550600101612af1565b5090565b90565b612b3291905b80821115612b2e576000816000905550600101612b16565b5090565b90565b612b5e91905b80821115612b5a5760008181612b519190612b61565b50600101612b3b565b5090565b90565b5080546000825590600052602060002090810190612b7f9190612b10565b505600a165627a7a72305820e83636e6ffaa9f3912b01b1838ff00098ee0d41a973d6885efc4bb86eb5702ac0029",
  "source": "pragma solidity ^0.4.16;\n\ninterface Consumer {\n   function consume(bytes32 id, bytes32[] dta) public;\n}\n\n/* Calculate a merkle tree in solidity */\n\n/**\n* @title Calculate a merkle tree for the filesystem in solidity\n* @author Sami Mkel\n*/\ncontract Filesystem {\n   bytes32[] zero;\n   struct File {\n     uint size;\n     uint bytesize;\n     bytes32[][] data;\n     string name;\n     \n     string ipfs_hash;\n     bytes32 root;\n   }\n   mapping (bytes32 => File) files;\n   function Filesystem() public {\n      zero.length = 20;\n      zero[0] = bytes32(0);\n      for (uint i = 1; i < zero.length; i++) {\n         zero[i] = keccak256(zero[i-1], zero[i-1]);\n      }\n   }\n   \n   function createFileWithContents(string name, uint nonce, bytes32[] arr, uint sz) public returns (bytes32) {\n      bytes32 id = createFile(name, nonce);\n      setSize(id, arr.length);\n      setLeafs(id, arr, 0, arr.length);\n      setByteSize(id, sz);\n      return id;\n   }\n   \n   function calcId(uint nonce) public view returns (bytes32) {\n         return keccak256(msg.sender, nonce);\n   }\n\n   function createFile(string name, uint nonce) public returns (bytes32) {\n      bytes32 id = keccak256(msg.sender, nonce);\n      File storage f = files[id];\n      f.data.length = 2;\n      f.data[0].length = 2;\n      f.data[1].length = 1;\n      f.data[0][0] = zero[0];\n      f.data[0][1] = zero[0];\n      f.data[1][0] = zero[1];\n      f.size = 0;\n      f.name = name;\n      return id;\n   }\n   \n   // the IPFS file should have same contents and name\n   function addIPFSFile(string name, uint size, string hash, bytes32 root, uint nonce) public returns (bytes32) {\n      bytes32 id = keccak256(msg.sender, nonce);\n      File storage f = files[id];\n      f.size = size;\n      f.name = name;\n      f.ipfs_hash = hash;\n      f.root = root;\n      return id;\n   }\n   \n   function expand(bytes32 id) internal {\n      File storage f = files[id];\n      for (uint i = 0; i < f.data.length; i++) {\n         f.data[i].length = f.data[i].length*2;\n      }\n      f.data[f.data.length-1][1] = zero[f.data.length-1];\n      f.data.length++;\n      f.data[f.data.length-1].length = 1;\n      f.data[f.data.length-1][0] = keccak256(f.data[f.data.length-2][0], f.data[f.data.length-2][1]);\n   }\n   \n   function setSize(bytes32 id, uint sz) public {\n      File storage f = files[id];\n      while (f.data[0].length < sz) expand(id);\n      f.size = sz;\n   }\n   \n   function getName(bytes32 id) public view returns (string) {\n      return files[id].name;\n   }\n   \n   function getNameHash(bytes32 id) public view returns (bytes32) {\n      return hashName(files[id].name);\n   }\n   \n   function getHash(bytes32 id) public view returns (string) {\n      return files[id].ipfs_hash;\n   }\n   \n   function getSize(bytes32 id) public view returns (uint) {\n      return files[id].size;\n   }\n\n   function getByteSize(bytes32 id) public view returns (uint) {\n      return files[id].bytesize;\n   }\n\n   function setByteSize(bytes32 id, uint sz) public returns (uint) {\n      files[id].bytesize = sz;\n   }\n\n   function getData(bytes32 id) public view returns (bytes32[]) {\n      File storage f = files[id];\n      bytes32[] memory res = new bytes32[](f.size);\n      for (uint i = 0; i < f.size; i++) res[i] = f.data[0][i];\n      return res;\n   }\n   \n   function forwardData(bytes32 id, address a) public {\n      File storage f = files[id];\n      bytes32[] memory res = new bytes32[](f.size);\n      if (f.data.length == 0) return;\n      for (uint i = 0; i < f.size && i < f.data[0].length; i++) res[i] = f.data[0][i];\n      Consumer(a).consume(id, res);\n   }\n   \n   function debug_forwardData(bytes32 id, address a) public returns (uint) {\n      File storage f = files[id];\n      return f.data.length;\n   }\n   \n   function getRoot(bytes32 id) public view returns (bytes32) {\n      File storage f = files[id];\n      if (f.root != 0) return f.root;\n      else return f.data[f.data.length-1][0];\n   }\n   function getLeaf(bytes32 id, uint loc) public view returns (bytes32) {\n      File storage f = files[id];\n      return f.data[0][loc];\n   }\n   function setLeafs(bytes32 id, bytes32[] arr, uint loc, uint len) public {\n      for (uint i = 0; i < len; i++) setLeaf(id, loc+i, arr[i]);\n   }\n   function setLeaf(bytes32 id, uint loc, bytes32 v) public {\n      File storage f = files[id];\n      f.data[0][loc] = v;\n      for (uint i = 1; i < f.data.length; i++) {\n         loc = loc/2;\n         bytes32 l1 = f.data[i-1][loc*2];\n         bytes32 l2 = f.data[i-1][loc*2+1];\n         if (l1 == 0) l1 = zero[i-1];\n         if (l2 == 0) l2 = zero[i-1];\n         f.data[i][loc] = keccak256(l1, l2);\n      }\n   }\n\n   // Methods to build IO blocks\n   struct Bundle {\n      bytes32 name_file;\n      bytes32 data_file;\n      bytes32 size_file;\n      uint pointer;\n      address code;\n      string code_file;\n      bytes32 init;\n      bytes32[] files;\n   }\n\n   mapping (bytes32 => Bundle) bundles;\n   \n   function makeSimpleBundle(uint num, address code, bytes32 code_init, bytes32 file_id) public returns (bytes32) {\n       bytes32 id = keccak256(msg.sender, num);\n       Bundle storage b = bundles[id];\n       b.code = code;\n\n       bytes32 res1 = bytes32(getSize(file_id));\n       for (uint i = 0; i < 3; i++) res1 = keccak256(res1, zero[i]);\n       \n       bytes32 res2 = hashName(getName(file_id));\n       for (i = 0; i < 3; i++) res2 = keccak256(res2, zero[i]);\n       \n       bytes32 res3 = getRoot(file_id);\n       for (i = 0; i < 3; i++) res3 = keccak256(res3, zero[i]);\n       \n       b.init = keccak256(code_init, res1, res2, res3);\n\n       b.files.push(file_id);\n\n       return id;\n   }\n\n   function finalizeBundleIPFS(bytes32 id, string file, bytes32 init) public {\n       Bundle storage b = bundles[id];\n       bytes32[] memory res1 = new bytes32[](b.files.length);\n       bytes32[] memory res2 = new bytes32[](b.files.length);\n       bytes32[] memory res3 = new bytes32[](b.files.length);\n       \n       for (uint i = 0; i < b.files.length; i++) {\n          res1[i] = bytes32(getByteSize(b.files[i]));\n          res2[i] = hashName(getName(b.files[i]));\n          res3[i] = getRoot(b.files[i]);\n       }\n       \n       b.code_file = file;\n       \n       b.init = keccak256(init, calcMerkle(res1, 0, 4), calcMerkle(res2, 0, 4), calcMerkleDefault(res3, 0, 4, 0xad3228b676f7d3cd4284a5443f17f1962b36e491b30a40b2405849e597ba5fb5));\n   }\n   \n   function debug_finalizeBundleIPFS(bytes32 id, string file, bytes32 init) public returns (bytes32, bytes32, bytes32, bytes32, bytes32) {\n       Bundle storage b = bundles[id];\n       bytes32[] memory res1 = new bytes32[](b.files.length);\n       bytes32[] memory res2 = new bytes32[](b.files.length);\n       bytes32[] memory res3 = new bytes32[](b.files.length);\n       \n       for (uint i = 0; i < b.files.length; i++) {\n          res1[i] = bytes32(getByteSize(b.files[i]));\n          res2[i] = hashName(getName(b.files[i]));\n          res3[i] = getRoot(b.files[i]);\n       }\n       \n       b.code_file = file;\n       \n       return (init, calcMerkle(res1, 0, 4), calcMerkle(res2, 0, 4), calcMerkleDefault(res3, 0, 4, 0xad3228b676f7d3cd4284a5443f17f1962b36e491b30a40b2405849e597ba5fb5),\n               keccak256(init, calcMerkle(res1, 0, 4), calcMerkle(res2, 0, 4), calcMerkleDefault(res3, 0, 4, 0xad3228b676f7d3cd4284a5443f17f1962b36e491b30a40b2405849e597ba5fb5)));\n   }\n   \n   function makeBundle(uint num) public view returns (bytes32) {\n       bytes32 id = keccak256(msg.sender, num);\n       return id;\n   }\n\n   function addToBundle(bytes32 id, bytes32 file_id) public returns (bytes32) {\n       Bundle storage b = bundles[id];\n       b.files.push(file_id);\n   }\n   \n   function getInitHash(bytes32 bid) public view returns (bytes32) {\n       Bundle storage b = bundles[bid];\n       return b.init;\n   }\n   \n   function getCode(bytes32 bid) public view returns (bytes) {\n       Bundle storage b = bundles[bid];\n       return getCodeAtAddress(b.code);\n   }\n   \n   function getIPFSCode(bytes32 bid) public view returns (string) {\n       Bundle storage b = bundles[bid];\n       return b.code_file;\n   }\n   \n   function getFiles(bytes32 bid) public view returns (bytes32[]) {\n       Bundle storage b = bundles[bid];\n       return b.files;\n   }\n   \n   function getCodeAtAddress(address a) internal view returns (bytes) {\n        uint len;\n        assembly {\n            len := extcodesize(a)\n        }\n        bytes memory bs = new bytes(len);\n        assembly {\n            extcodecopy(a, add(bs,32), 0, len)\n        }\n        return bs;\n   }\n\n   function makeMerkle(bytes arr, uint idx, uint level) internal pure returns (bytes32) {\n      if (level == 0) return idx < arr.length ? bytes32(uint(arr[idx])) : bytes32(0);\n      else return keccak256(makeMerkle(arr, idx, level-1), makeMerkle(arr, idx+(2**(level-1)), level-1));\n   }\n\n   function calcMerkle(bytes32[] arr, uint idx, uint level) internal returns (bytes32) {\n      if (level == 0) return idx < arr.length ? arr[idx] : bytes32(0);\n      else return keccak256(calcMerkle(arr, idx, level-1), calcMerkle(arr, idx+(2**(level-1)), level-1));\n   }\n\n   function calcMerkleDefault(bytes32[] arr, uint idx, uint level, bytes32 def) internal returns (bytes32) {\n      if (level == 0) return idx < arr.length ? arr[idx] : def;\n      else return keccak256(calcMerkleDefault(arr, idx, level-1, def), calcMerkleDefault(arr, idx+(2**(level-1)), level-1, def));\n   }\n\n   // assume 256 bytes?\n   function hashName(string name) public pure returns (bytes32) {\n      return makeMerkle(bytes(name), 0, 8);\n   }\n\n   /*\n   function addToBundle(bytes32 bid, bytes32 id) public {\n       Bundle storage b = bundles[bid];\n       setLeaf(b.data_file, b.pointer, getRoot(uint(id)));\n       setLeaf(b.size_file, b.pointer, bytes32(getSize(uint(id))));\n       setLeaf(b.name_file, b.pointer, hashName(getName(uint(id))));\n       b.pointer++;\n   }\n\n   function makeBundle(uint num, address code, uint sz) public returns (bytes32) {\n       bytes32 id = keccak256(msg.sender, num);\n       Bundle storage b = bundles[id];\n       b.name_file = createFile(\"names\", uint(id));\n       b.data_file = createFile(\"data\", uint(id)+1);\n       b.size_file = createFile(\"size\", uint(id)+2);\n       b.code = code;\n       setSize(b.name_file, sz);\n       setSize(b.data_file, sz);\n       setSize(b.size_file, sz);\n       \n       return id;\n   }\n   */\n   \n}\n\n",
  "sourcePath": "/home/hswick/projects/webasm-solidity/contracts/fs.sol",
  "compiler": {
    "name": "solc",
    "version": "0.4.18+commit.9cf6e910.Emscripten.clang"
  },
  "schemaVersion": "1.0.1",
  "updatedAt": "2018-01-19T05:12:10.329Z"
}