{
  "contractName": "GetCode",
  "abi": [
    {
      "constant": true,
      "inputs": [
        {
          "name": "a",
          "type": "address"
        }
      ],
      "name": "get",
      "outputs": [
        {
          "name": "",
          "type": "bytes"
        }
      ],
      "payable": false,
      "stateMutability": "view",
      "type": "function"
    }
  ],
  "bytecode": "0x6060604052341561000f57600080fd5b6101868061001e6000396000f300606060405260043610610041576000357c0100000000000000000000000000000000000000000000000000000000900463ffffffff168063c2bc2efc14610046575b600080fd5b341561005157600080fd5b61007d600480803573ffffffffffffffffffffffffffffffffffffffff169060200190919050506100f8565b6040518080602001828103825283818151815260200191508051906020019080838360005b838110156100bd5780820151818401526020810190506100a2565b50505050905090810190601f1680156100ea5780820380516001836020036101000a031916815260200191505b509250505060405180910390f35b610100610146565b600061010a610146565b833b91508160405180591061011c5750595b9080825280601f01601f1916602001820160405250905081600060208301863c8092505050919050565b6020604051908101604052806000815250905600a165627a7a72305820a42fa7167be232f8adf95f7089c90845da02bc2f70eec5accdcbe7360c5400480029",
  "source": "pragma solidity ^0.4.16;\n\n/**\n* @title\n* @author Sami M채kel채\n*/\ncontract GetCode {\n    /**\n    * @dev get the task code\n    *\n    * @param a address of the task code\n    *\n    * @return return an array which holds the code of the task\n    */\n    function get(address a) public view returns (bytes) {\n        uint len;\n        assembly {\n            len := extcodesize(a)\n        }\n        bytes memory bs = new bytes(len);\n        assembly {\n            extcodecopy(a, add(bs,32), 0, len)\n        }\n        return bs;\n    }\n}\n",
  "sourcePath": "/home/hswick/projects/webasm-solidity/contracts/getcode.sol",
  "compiler": {
    "name": "solc",
    "version": "0.4.18+commit.9cf6e910.Emscripten.clang"
  },
  "schemaVersion": "1.0.1",
  "updatedAt": "2018-01-19T04:57:05.394Z"
}