{
  "contractName": "Input",
  "abi": [
    {
      "constant": false,
      "inputs": [],
      "name": "expand",
      "outputs": [],
      "payable": false,
      "stateMutability": "nonpayable",
      "type": "function"
    },
    {
      "constant": true,
      "inputs": [
        {
          "name": "loc",
          "type": "uint256"
        }
      ],
      "name": "getLeaf",
      "outputs": [
        {
          "name": "",
          "type": "bytes32"
        }
      ],
      "payable": false,
      "stateMutability": "view",
      "type": "function"
    },
    {
      "constant": true,
      "inputs": [],
      "name": "getRoot",
      "outputs": [
        {
          "name": "",
          "type": "bytes32"
        }
      ],
      "payable": false,
      "stateMutability": "view",
      "type": "function"
    },
    {
      "constant": false,
      "inputs": [
        {
          "name": "loc",
          "type": "uint256"
        },
        {
          "name": "v",
          "type": "bytes32"
        }
      ],
      "name": "setLeaf",
      "outputs": [],
      "payable": false,
      "stateMutability": "nonpayable",
      "type": "function"
    },
    {
      "inputs": [],
      "payable": false,
      "stateMutability": "nonpayable",
      "type": "constructor"
    }
  ],
  "bytecode": "0x606060405234156200001057600080fd5b6000602060008162000023919062000274565b5060006001026000808154811015156200003957fe5b90600052602060002090018160001916905550600190505b6020811015620000f6576000600182038154811015156200006e57fe5b9060005260206000209001546000600183038154811015156200008d57fe5b9060005260206000209001546040518083600019166000191681526020018260001916600019168152602001925050506040518091039020600082815481101515620000d557fe5b90600052602060002090018160001916905550808060010191505062000051565b60028081620001069190620002a3565b5060028060008154811015156200011957fe5b90600052602060002090018162000131919062000274565b506001600260018154811015156200014557fe5b9060005260206000209001816200015d919062000274565b506000808154811015156200016e57fe5b906000526020600020900154600260008154811015156200018b57fe5b90600052602060002090016000815481101515620001a557fe5b90600052602060002090018160001916905550600080815481101515620001c857fe5b90600052602060002090015460026000815481101515620001e557fe5b90600052602060002090016001815481101515620001ff57fe5b90600052602060002090018160001916905550600060018154811015156200022357fe5b906000526020600020900154600260018154811015156200024057fe5b906000526020600020900160008154811015156200025a57fe5b90600052602060002090018160001916905550506200034e565b8154818355818115116200029e578183600052602060002091820191016200029d9190620002d2565b5b505050565b815481835581811511620002cd57818360005260206000209182019101620002cc9190620002fa565b5b505050565b620002f791905b80821115620002f3576000816000905550600101620002d9565b5090565b90565b6200032891905b808211156200032457600081816200031a91906200032b565b5060010162000301565b5090565b90565b50805460008255906000526020600020908101906200034b9190620002d2565b50565b610612806200035e6000396000f300606060405260043610610062576000357c0100000000000000000000000000000000000000000000000000000000900463ffffffff1680631cf28a651461006757806322e912481461007c5780635ca1e165146100bb578063c7f423c7146100ec575b600080fd5b341561007257600080fd5b61007a61011c565b005b341561008757600080fd5b61009d60048080359060200190919050506102e3565b60405180826000191660001916815260200191505060405180910390f35b34156100c657600080fd5b6100ce610320565b60405180826000191660001916815260200191505060405180910390f35b34156100f757600080fd5b61011a600480803590602001909190803560001916906020019091905050610363565b005b60008090505b600280549050811015610182576002808281548110151561013f57fe5b9060005260206000209001805490500260028281548110151561015e57fe5b906000526020600020900181610174919061051c565b508080600101915050610122565b600060016002805490500381548110151561019957fe5b90600052602060002090015460026001600280549050038154811015156101bc57fe5b906000526020600020900160018154811015156101d557fe5b90600052602060002090018160001916905550600280548091906001016101fc9190610548565b5060028080805490500381548110151561021257fe5b9060005260206000209001600081548110151561022b57fe5b90600052602060002090015460028080805490500381548110151561024c57fe5b9060005260206000209001600181548110151561026557fe5b906000526020600020900154604051808360001916600019168152602001826000191660001916815260200192505050604051809103902060026001600280549050038154811015156102b457fe5b906000526020600020900160008154811015156102cd57fe5b9060005260206000209001816000191690555050565b6000600260008154811015156102f557fe5b90600052602060002090018281548110151561030d57fe5b9060005260206000209001549050919050565b6000600260016002805490500381548110151561033957fe5b9060005260206000209001600081548110151561035257fe5b906000526020600020900154905090565b6000806000836002600081548110151561037957fe5b90600052602060002090018681548110151561039157fe5b90600052602060002090018160001916905550600192505b600280549050831015610515576002858115156103c257fe5b0494506002600184038154811015156103d757fe5b9060005260206000209001600286028154811015156103f257fe5b906000526020600020900154915060026001840381548110151561041257fe5b90600052602060002090016001600287020181548110151561043057fe5b906000526020600020900154905060006001028260001916141561046f5760006001840381548110151561046057fe5b90600052602060002090015491505b6000600102816000191614156104a05760006001840381548110151561049157fe5b90600052602060002090015490505b818160405180836000191660001916815260200182600019166000191681526020019250505060405180910390206002848154811015156104dd57fe5b9060005260206000209001868154811015156104f557fe5b9060005260206000209001816000191690555082806001019350506103a9565b5050505050565b815481835581811511610543578183600052602060002091820191016105429190610574565b5b505050565b81548183558181151161056f5781836000526020600020918201910161056e9190610599565b5b505050565b61059691905b8082111561059257600081600090555060010161057a565b5090565b90565b6105c291905b808211156105be57600081816105b591906105c5565b5060010161059f565b5090565b90565b50805460008255906000526020600020908101906105e39190610574565b505600a165627a7a723058207c6df2267287b9bb5efd7ae2d83215acd71653b46c36396248f06214d337ae020029",
  "source": "pragma solidity ^0.4.16;\n\n/* Calculate a merkle tree in solidity */\n\ncontract Input {\n   bytes32[] zero;\n   uint level;\n   bytes32[][] data;\n   function Input() public {\n      zero.length = 32;\n      zero[0] = bytes32(0);\n      for (uint i = 1; i < 32; i++) {\n         zero[i] = keccak256(zero[i-1], zero[i-1]);\n      }\n      data.length = 2;\n      data[0].length = 2;\n      data[1].length = 1;\n      data[0][0] = zero[0];\n      data[0][1] = zero[0];\n      data[1][0] = zero[1];\n   }\n   function getRoot() public view returns (bytes32) {\n      return data[data.length-1][0];\n   }\n   function getLeaf(uint loc) public view returns (bytes32) {\n      return data[0][loc];\n   }\n   function expand() public {\n      for (uint i = 0; i < data.length; i++) {\n         data[i].length = data[i].length*2;\n      }\n      data[data.length-1][1] = zero[data.length-1];\n      data.length++;\n      data[data.length-1][0] = keccak256(data[data.length-2][0], data[data.length-2][1]);\n   }\n   function setLeaf(uint loc, bytes32 v) public {\n      data[0][loc] = v;\n      for (uint i = 1; i < data.length; i++) {\n         loc = loc/2;\n         bytes32 l1 = data[i-1][loc*2];\n         bytes32 l2 = data[i-1][loc*2+1];\n         if (l1 == 0) l1 = zero[i-1];\n         if (l2 == 0) l2 = zero[i-1];\n         data[i][loc] = keccak256(l1, l2);\n      }\n   }\n}\n\n",
  "sourcePath": "/home/hswick/projects/webasm-solidity/contracts/memory.sol",
  "compiler": {
    "name": "solc",
    "version": "0.4.18+commit.9cf6e910.Emscripten.clang"
  },
  "schemaVersion": "1.0.1",
  "updatedAt": "2018-01-19T04:57:05.421Z"
}