{
  "contractName": "Instruction",
  "abi": [
    {
      "constant": false,
      "inputs": [
        {
          "name": "res",
          "type": "bytes32[13]"
        },
        {
          "name": "q",
          "type": "uint256"
        },
        {
          "name": "proof",
          "type": "bytes32[]"
        },
        {
          "name": "loc",
          "type": "uint256"
        },
        {
          "name": "fetched_op",
          "type": "bytes32"
        },
        {
          "name": "vm_",
          "type": "bytes32"
        },
        {
          "name": "op",
          "type": "bytes32"
        },
        {
          "name": "regs",
          "type": "uint256[4]"
        },
        {
          "name": "roots",
          "type": "bytes32[8]"
        },
        {
          "name": "pointers",
          "type": "uint256[4]"
        }
      ],
      "name": "judge",
      "outputs": [
        {
          "name": "",
          "type": "uint256"
        }
      ],
      "payable": false,
      "stateMutability": "nonpayable",
      "type": "function"
    }
  ],
  "bytecode": "0x6060604052341561000f57600080fd5b612eca8061001e6000396000f300606060405260043610610041576000357c0100000000000000000000000000000000000000000000000000000000900463ffffffff16806392520bae14610046575b600080fd5b341561005157600080fd5b610189600480806101a00190600d806020026040519081016040528092919082600d60200280828437820191505050505091908035906020019091908035906020019082018035906020019080806020026020016040519081016040528093929190818152602001838360200280828437820191505050505050919080359060200190919080356000191690602001909190803560001916906020019091908035600019169060200190919080608001906004806020026040519081016040528092919082600460200280828437820191505050505091908061010001906008806020026040519081016040528092919082600860200280828437820191505050505091908060800190600480602002604051908101604052809291908260046020028082843782019150505050509190505061019f565b6040518082815260200191505060405180910390f35b60006101fb86868660006004811015156101b557fe5b60200201518760016004811015156101c957fe5b60200201518860026004811015156101dd57fe5b60200201518960036004811015156101f157fe5b60200201516102a1565b61020583836102ed565b8a60018b01600d8110151561021657fe5b60200201516000191661023e8c8c600d8110151561023057fe5b60200201518c8c8c8c61046b565b6000191614151561024e57600080fd5b336000806101000a81548173ffffffffffffffffffffffffffffffffffffffff021916908373ffffffffffffffffffffffffffffffffffffffff16021790555060135490509a9950505050505050505050565b85600d600001816000191690555084600d600101816000191690555083600d6002018190555082600d6003018190555081600d6004018190555080600d60050181905550505050505050565b8160006008811015156102fc57fe5b60200201516005600001816000191690555081600160088110151561031d57fe5b60200201516005600101816000191690555081600260088110151561033e57fe5b60200201516005600201816000191690555081600360088110151561035f57fe5b60200201516005600601816000191690555081600460088110151561038057fe5b6020020151600560030181600019169055508160056008811015156103a157fe5b6020020151600560040181600019169055508160066008811015156103c257fe5b60200201516005800181600019169055508160076008811015156103e257fe5b60200201516005600701816000191690555080600060048110151561040357fe5b602002015160016000018190555080600160048110151561042057fe5b6020020151600180018190555080600260048110151561043c57fe5b602002015160016002018190555080600360048110151561045957fe5b60200201516001600301819055505050565b6000808514156104865761047f86856105ae565b90506105a5565b60018514156104a057610499868361063f565b90506105a5565b60028514156104bb576104b48685856106ef565b90506105a5565b60038514156104d6576104cf868585610788565b90506105a5565b60048514156104f1576104ea868585610822565b90506105a5565b600585141561050a57610503866108bd565b90506105a5565b60068514156105255761051e868585610935565b90506105a5565b600785141561054057610539868585610a41565b90506105a5565b60088514156105595761055286610b51565b90506105a5565b60098514156105725761056b86610bf6565b90506105a5565b600a85141561058b5761058486610c97565b90506105a5565b600b8514156105a45761059d86610d39565b90506105a5565b5b95945050505050565b6000806105b9610dd2565b6000191684600019161415156105ce57600080fd5b6105dd8360016000015461106d565b90506105ee836001600001546110d7565b600019166005600001546000191614151561060857600080fd5b8381604051808360001916600019168152602001826000191660001916815260200192505050604051809103902091505092915050565b6000610649610dd2565b600d600001816000191690555081600d60010181600019169055506000600d600201819055506000600d600301819055506000600d6004018190555061068e8261123a565b600d60050181905550600d600001548260405180836000191660001916815260200182600019166000191681526020019250505060405180910390206000191683600019161415156106df57600080fd5b6106e7611261565b905092915050565b6000806106fa610dd2565b60001916600d600001546000191614151561071457600080fd5b61071c611261565b60001916856000191614151561073157600080fd5b60ff6001600d600101546001900481151561074857fe5b041690506107578484836112d4565b151561076257600080fd5b61076d848483611322565b600d6002018190555061077e611261565b9150509392505050565b600080610793610dd2565b60001916600d60000154600019161415156107ad57600080fd5b6107b5611261565b6000191685600019161415156107ca57600080fd5b60ff610100600d60010154600190048115156107e257fe5b041690506107f18484836112d4565b15156107fc57600080fd5b610807848483611322565b600d60030181905550610818611261565b9150509392505050565b60008061082d610dd2565b60001916600d600001546000191614151561084757600080fd5b61084f611261565b60001916856000191614151561086457600080fd5b60ff62010000600d600101546001900481151561087d57fe5b0416905061088c8484836112d4565b151561089757600080fd5b6108a2848483611322565b600d600401819055506108b3611261565b9150509392505050565b6000806108c8611261565b6000191683600019161415156108dd57600080fd5b60ff6301000000600d60010154600190048115156108f757fe5b0416905061091c81600d60020154600d60030154600d60040154600d600501546113a6565b600d6002018190555061092d611261565b915050919050565b600080600080610943610dd2565b60001916600d600001546000191614151561095d57600080fd5b610965611261565b60001916876000191614151561097a57600080fd5b60ff640100000000600d600101546001900481151561099557fe5b0416925060ff65010000000000600d60010154600190048115156109b557fe5b04169150816013819055506109cb868684611c19565b15156109d657600080fd5b60018314156109e857600d6002015490505b60028314156109fa57600d6003015490505b6003831415610a0c57600d6004015490505b610a1882878784611c65565b610a20610dd2565b600d6000018160001916905550610a35611261565b93505050509392505050565b600080600080610a4f610dd2565b60001916600d6000015460001916141515610a6957600080fd5b610a71611261565b600019168760001916141515610a8657600080fd5b60ff6601000000000000600d6001015460019004811515610aa357fe5b0416925060ff670100000000000000600d6001015460019004811515610ac557fe5b0416915081601381905550610adb868684611c19565b1515610ae657600080fd5b6001831415610af857600d6002015490505b6002831415610b0a57600d6003015490505b6003831415610b1c57600d6004015490505b610b2882878784611c65565b610b30610dd2565b600d6000018160001916905550610b45611261565b93505050509392505050565b600080610b5c610dd2565b60001916600d6000015460001916141515610b7657600080fd5b610b7e611261565b600019168360001916141515610b9357600080fd5b60ff6b010000000000000000000000600d6001015460019004811515610bb557fe5b04169050610bc881600160000154611da1565b600160000181905550610bd9610dd2565b600d6000018160001916905550610bee611261565b915050919050565b600080610c01610dd2565b60001916600d6000015460001916141515610c1b57600080fd5b610c23611261565b600019168360001916141515610c3857600080fd5b60ff6901000000000000000000600d6001015460019004811515610c5857fe5b04169050610c6a816001800154611da1565b6001800181905550610c7a610dd2565b600d6000018160001916905550610c8f611261565b915050919050565b600080610ca2610dd2565b60001916600d6000015460001916141515610cbc57600080fd5b610cc4611261565b600019168360001916141515610cd957600080fd5b60ff68010000000000000000600d6001015460019004811515610cf857fe5b04169050610d0b81600160020154611da1565b600160020181905550610d1c610dd2565b600d6000018160001916905550610d31611261565b915050919050565b600080610d44610dd2565b60001916600d6000015460001916141515610d5e57600080fd5b610d66611261565b600019168360001916141515610d7b57600080fd5b60ff6c01000000000000000000000000600d6001015460019004811515610d9e57fe5b041690506001811415610dc257600d60020154600160030154016001600301819055505b610dca610dd2565b915050919050565b6000610ddc612e76565b600c604051805910610deb5750595b90808252806020026020018201604052509050600560000154816000815181101515610e1357fe5b906020019060200201906000191690816000191681525050600560020154816001815181101515610e4057fe5b906020019060200201906000191690816000191681525050600560010154816002815181101515610e6d57fe5b906020019060200201906000191690816000191681525050600560030154816003815181101515610e9a57fe5b906020019060200201906000191690816000191681525050600560060154816004815181101515610ec757fe5b906020019060200201906000191690816000191681525050600560040154816005815181101515610ef457fe5b9060200190602002019060001916908160001916815250506005800154816006815181101515610f2057fe5b906020019060200201906000191690816000191681525050600560070154816007815181101515610f4d57fe5b906020019060200201906000191690816000191681525050600160000154600102816008815181101515610f7d57fe5b9060200190602002019060001916908160001916815250506001800154600102816009815181101515610fac57fe5b90602001906020020190600019169081600019168152505060016002015460010281600a815181101515610fdc57fe5b90602001906020020190600019169081600019168152505060016003015460010281600b81518110151561100c57fe5b9060200190602002019060001916908160001916815250508060405180828051906020019060200280838360005b8381101561105557808201518184015260208101905061103a565b50505050905001915050604051809103902091505090565b6000600283511015151561108057600080fd5b600060028381151561108e57fe5b0614156110b5578260008151811015156110a457fe5b9060200190602002015190506110d1565b8260018151811015156110c457fe5b9060200190602002015190505b92915050565b600080600060028551101515156110ed57600080fd5b8460008151811015156110fc57fe5b9060200190602002015185600181518110151561111557fe5b9060200190602002015160405180836000191660001916815260200182600019166000191681526020019250505060405180910390209150600290505b84518110156112205760028481151561116757fe5b049350600060028581151561117857fe5b0614156111cb5781858281518110151561118e57fe5b9060200190602002015160405180836000191660001916815260200182600019166000191681526020019250505060405180910390209150611213565b84818151811015156111d957fe5b9060200190602002015182604051808360001916600019168152602001826000191660001916815260200192505050604051809103902091505b8080600101915050611152565b60028410151561122f57600080fd5b819250505092915050565b60006d0100000000000000000000000000826001900481151561125957fe5b049050919050565b6000600d60000154600d60010154600d60020154600d60030154600d60040154600d60050154604051808760001916600019168152602001866000191660001916815260200185815260200184815260200183815260200182815260200196505050505050506040518091039020905090565b60006004821115156112e9576001905061131b565b826112f383611e6b565b148015611318575061130584846110d7565b6000191661131283611fac565b60001916145b90505b9392505050565b600080821415611335576000905061139f565b600182141561134b57600d60050154905061139f565b6002821415611363576001806000015401905061139f565b6003821415611378576001800154905061139f565b600482141561138e57600160030154905061139f565b611398848461106d565b6001900490505b9392505050565b6000806113b1612e8a565b86915060008814156113c557869250611c0e565b60018814806113d45750600688145b156113de57600080fd5b60c08089161415611415576113f386866120b1565b905061140e816008868a0181151561140757fe5b068a612108565b9150611bab565b6002881415611437578587101561142e57869150611432565b8591505b611baa565b600388141561145b5760008614151561145257869150611456565b8491505b611ba9565b600488141561147d57838710156114725786611474565b835b86019150611ba8565b600788141561149d57858414151561149457600080fd5b60009150611ba7565b60458814806114ac5750605088145b156114cd5760008714156114c357600191506114c8565b600091505b611ba6565b60468814806114dc5750605188145b156114fc57858714156114f257600191506114f7565b600091505b611ba5565b604788148061150b5750605288145b1561152c5785871415156115225760019150611527565b600091505b611ba4565b6048881415611556578560030b8760030b121561154c5760019150611551565b600091505b611ba3565b6049881415611586578563ffffffff168763ffffffff16101561157c5760019150611581565b600091505b611ba2565b604a8814156115b0578560030b8760030b13156115a657600191506115ab565b600091505b611ba1565b604b8814156115e0578563ffffffff168763ffffffff1611156115d657600191506115db565b600091505b611ba0565b604c88141561160b578560030b8760030b1315156116015760019150611606565b600091505b611b9f565b604d88141561163c578563ffffffff168763ffffffff161115156116325760019150611637565b600091505b611b9e565b604e881415611667578560030b8760030b12151561165d5760019150611662565b600091505b611b9d565b604f881415611698578563ffffffff168763ffffffff1610151561168e5760019150611693565b600091505b611b9c565b60538814156116c2578560070b8760070b12156116b857600191506116bd565b600091505b611b9b565b60548814156116fa578567ffffffffffffffff168767ffffffffffffffff1610156116f057600191506116f5565b600091505b611b9a565b6055881415611724578560070b8760070b131561171a576001915061171f565b600091505b611b99565b605688141561175c578567ffffffffffffffff168767ffffffffffffffff1611156117525760019150611757565b600091505b611b98565b6057881415611787578560070b8760070b13151561177d5760019150611782565b600091505b611b97565b60588814156117c0578567ffffffffffffffff168767ffffffffffffffff161115156117b657600191506117bb565b600091505b611b96565b60598814156117eb578560070b8760070b1215156117e157600191506117e6565b600091505b611b95565b605a881415611824578567ffffffffffffffff168767ffffffffffffffff1610151561181a576001915061181f565b600091505b611b94565b60678814156118405761183687612143565b60ff169150611b93565b606888141561185c576118528761223f565b60ff169150611b92565b60698814156118785761186e8761232f565b60ff169150611b91565b60798814156118945761188a876123d3565b60ff169150611b90565b607a8814156118b0576118a68761253d565b60ff169150611b8f565b607b8814156118cc576118c28761268a565b60ff169150611b8e565b606a8814806118db5750607c88145b156118ea578587019150611b8d565b606b8814806118f95750607d88145b15611908578587039150611b8c565b606c8814806119175750607e88145b15611926578587029150611b8b565b606d88141561194b578560030b8760030b81151561194057fe5b0560030b9150611b8a565b607f881415611970578560070b8760070b81151561196557fe5b0560070b9150611b89565b606e88148061197f5750608088145b1561199757858781151561198f57fe5b049150611b88565b606f8814156119bc578560030b8760030b8115156119b157fe5b0760030b9150611b87565b60818814156119e1578560070b8760070b8115156119d657fe5b0760070b9150611b86565b60708814806119f05750608288145b15611a08578587811515611a0057fe5b069150611b85565b6071881480611a175750608388145b15611a26578587169150611b84565b6072881480611a355750608488145b15611a44578587179150611b83565b6073881480611a535750608588145b15611a62578587189150611b82565b6074881480611a715750608688145b15611a83578560020a87029150611b81565b6075881480611a925750608788145b15611aad578560020a87811515611aa557fe5b049150611b80565b6076881480611abc5750608888145b15611ad7578560020a87811515611acf57fe5b049150611b7f565b6077881415611aff5764010000000087811515611af057fe5b048660020a8802179150611b7e565b6078881415611b275764010000000087028660020a88811515611b1e57fe5b04179150611b7d565b6089881415611b53576801000000000000000087811515611b4457fe5b048660020a8802179150611b7c565b608a881415611b7b576801000000000000000087028660020a88811515611b7657fe5b041791505b5b5b5b5b5b5b5b5b5b5b5b5b5b5b5b5b5b5b5b5b5b5b5b5b5b5b5b5b5b5b5b5b5b5b5b5b5b5b5b5b5b5b5b5b5b5b5b5b60628810158015611bbd575060788811155b15611bda5764010000000082811515611bd257fe5b069150611c0a565b607c8810158015611bec5750608a8811155b15611c09576801000000000000000082811515611c0557fe5b0691505b5b8192505b505095945050505050565b600080821415611c2c5760019050611c5e565b82611c368361278d565b148015611c5b5750611c4884846110d7565b60001916611c55836128a4565b60001916145b90505b9392505050565b600080851415611c7457611d9a565b608060c086161415611c9357611c8c84848488612959565b9050611cc0565b60c08086161415611cb157611caa84848488612a50565b9050611cbf565b611cbc848484612b47565b90505b5b6002851415611cdc578060056001018160001916905550611d99565b6003851415611cf8578060056001018160001916905550611d98565b6004851415611d14578060056001018160001916905550611d97565b6005851415611d30578060056002018160001916905550611d96565b6006851415611d4c578060056006018160001916905550611d95565b6008851415611d68578060056003018160001916905550611d94565b6009851415611d84578060056001018160001916905550611d93565b80600560020181600019169055505b5b5b5b5b5b5b5b5050505050565b600080831415611dba57600d6002015482039050611e65565b6001831415611dd057600d600201549050611e65565b6002831415611de657600d600301549050611e65565b6003831415611dfc57600d600401549050611e65565b6004831415611e1057600182019050611e65565b6005831415611e2457600182039050611e65565b6006831415611e3557819050611e65565b6007831415611e4957600282039050611e65565b6008831415611e6457600d6005015460018303039050611e65565b5b92915050565b6000600482111515611e7957fe5b6005821415611e8f57600d600201549050611fa7565b6006821415611ea75760018060010154039050611fa7565b6007821415611ebf5760026001800154039050611fa7565b6008821415611edb57600d600201546001800154039050611fa7565b6009821415611ef757600d600301546001800154039050611fa7565b600e821415611f0f5760018060020154039050611fa7565b600f821415611f38576008600d60050154600d6002015401811515611f3057fe5b049050611fa7565b6010821415611f4e57600d600201549050611fa7565b6011821415611f7a5760016008600d60050154600d6002015401811515611f7157fe5b04019050611fa7565b6012821415611f9057600d600201549050611fa7565b6013821415611fa657600d600201549050611fa7565b5b919050565b6000600482111515611fba57fe5b6005821415611fd05760056003015490506120ac565b6006821415611fe65760056001015490506120ac565b6007821415611ffc5760056001015490506120ac565b60088214156120125760056001015490506120ac565b60098214156120285760056001015490506120ac565b600e82141561203e5760056006015490506120ac565b600f8214156120545760056002015490506120ac565b601082141561206a5760056004015490506120ac565b60118214156120805760056002015490506120ac565b601282141561209557600580015490506120ac565b60138214156120ab5760056007015490506120ac565b5b919050565b6120b9612e8a565b6120c1612e8a565b60106040518059106120d05750595b908082528060200260200182016040525090506120f1816000600887612bdb565b6120fe8160088086612bdb565b8091505092915050565b600061213a8484600360108681151561211d57fe5b0416600760028781151561212d57fe5b0416600180881614612c34565b90509392505050565b6000806000808463ffffffff16141561215f5760209250612238565b83915060009050600063ffff0000831663ffffffff1614156121925760108101905060108263ffffffff169060020a0291505b600063ff000000831663ffffffff1614156121be5760088101905060088263ffffffff169060020a0291505b600063f0000000831663ffffffff1614156121ea5760048101905060048263ffffffff169060020a0291505b600063c0000000831663ffffffff1614156122165760028101905060028263ffffffff169060020a0291505b60006308000000831663ffffffff1614156122345780806001019150505b8092505b5050919050565b6000806000808463ffffffff16141561225b5760209250612328565b83915060009050600061ffff831663ffffffff16141561228d5760108101905060108263ffffffff169060020a900491505b600060ff831663ffffffff1614156122b75760088101905060088263ffffffff169060020a900491505b6000600f831663ffffffff1614156122e15760048101905060048263ffffffff169060020a900491505b60006003831663ffffffff16141561230b5760028101905060028263ffffffff169060020a900491505b60006001831663ffffffff161415612324576001810190505b8092505b5050919050565b600080829050635555555560018263ffffffff169060020a90041663555555558216019050633333333360028263ffffffff169060020a90041663333333338216019050630f0f0f0f60048263ffffffff169060020a900416630f0f0f0f821601905062ff00ff60088263ffffffff169060020a90041662ff00ff821601905061ffff60108263ffffffff169060020a90041661ffff821601905080915050919050565b6000806000808467ffffffffffffffff1614156123f35760409250612536565b83915060009050600067ffffffff00000000831667ffffffffffffffff1614156124325760208101905060208267ffffffffffffffff169060020a0291505b600067ffff000000000000831667ffffffffffffffff1614156124665760108101905060108267ffffffffffffffff169050505b600067ff00000000000000831667ffffffffffffffff16141561249e5760088101905060088267ffffffffffffffff169060020a0291505b600067f000000000000000831667ffffffffffffffff1614156124d65760048101905060048267ffffffffffffffff169060020a0291505b600067c000000000000000831667ffffffffffffffff16141561250e5760028101905060028267ffffffffffffffff169060020a0291505b6000678000000000000000831667ffffffffffffffff161415612532576001810190505b8092505b5050919050565b6000806000808467ffffffffffffffff16141561255d5760409250612683565b83915060009050600063ffffffff831667ffffffffffffffff1614156125995760208101905060208267ffffffffffffffff169060020a900491505b600061ffff831667ffffffffffffffff1614156125cc5760108101905060108267ffffffffffffffff169060020a900491505b600060ff831667ffffffffffffffff1614156125fe5760088101905060088267ffffffffffffffff169060020a900491505b6000600f831667ffffffffffffffff1614156126305760048101905060048267ffffffffffffffff169060020a900491505b60006003831667ffffffffffffffff1614156126625760028101905060028267ffffffffffffffff169060020a900491505b60006001831667ffffffffffffffff16141561267f576001810190505b8092505b5050919050565b60008082905067555555555555555560018267ffffffffffffffff169060020a900416675555555555555555821601905067333333333333333360028267ffffffffffffffff169060020a9004166733333333333333338216019050670f0f0f0f0f0f0f0f60048267ffffffffffffffff169060020a900416670f0f0f0f0f0f0f0f821601905066ff00ff00ff00ff60088267ffffffffffffffff169060020a90041666ff00ff00ff00ff821601905065ffff0000ffff60108267ffffffffffffffff169060020a90041665ffff0000ffff821601905063ffffffff60208267ffffffffffffffff169060020a90041663ffffffff821601905080915050919050565b6000808211151561279a57fe5b60028214156127b657600d60020154600180015403905061289f565b60038214156127cb576001800154905061289f565b60048214156127e3576001806001015403905061289f565b600582141561280057600d60030154600d6002015401905061289f565b600682141561281657600160020154905061289f565b600882141561282c57600d60020154905061289f565b6009821415612844576002600180015403905061289f565b608060c083161415612870576008600d60050154600d600201540181151561286857fe5b04905061289f565b60c0808316141561289e5760016008600d60050154600d600201540181151561289557fe5b0401905061289f565b5b919050565b600080821115156128b157fe5b60028214156128c7576005600101549050612954565b60038214156128dd576005600101549050612954565b60048214156128f3576005600101549050612954565b6005821415612909576005600201549050612954565b600682141561291f576005600601549050612954565b6008821415612935576005600301549050612954565b600982141561294b576005600101549050612954565b60056002015490505b919050565b600080612964612e8a565b600080600289511015151561297557fe5b61297f898961106d565b6001900493506129908460006120b1565b92506129b6836008600d60050154600d60020154018115156129ae57fe5b068989612d20565b6129bf83612d45565b809250819350505060006002898115156129d557fe5b061415612a0c57816001028960008151811015156129ef57fe5b906020019060200201906000191690816000191681525050612a38565b81600102896001815181101515612a1f57fe5b9060200190602002019060001916908160001916815250505b612a4289896110d7565b945050505050949350505050565b600080612a5b612e8a565b6000806002895110151515612a6c57fe5b612a76898961106d565b600190049350612a876000856120b1565b9250612aad836008600d60050154600d6002015401811515612aa557fe5b068989612d20565b612ab683612d45565b80935081925050506000600289811515612acc57fe5b061415612b035781600102896000815181101515612ae657fe5b906020019060200201906000191690816000191681525050612b2f565b81600102896001815181101515612b1657fe5b9060200190602002019060001916908160001916815250505b612b3989896110d7565b945050505050949350505050565b60006002845110151515612b5757fe5b6000600284811515612b6557fe5b061415612b9c5781600102846000815181101515612b7f57fe5b906020019060200201906000191690816000191681525050612bc8565b81600102846001815181101515612baf57fe5b9060200190602002019060001916908160001916815250505b612bd284846110d7565b90509392505050565b60008090505b82811015612c2d578185828601815181101515612bfa57fe5b9060200190602002019060ff16908160ff168152505061010082811515612c1d57fe5b0491508080600101915050612be1565b5050505050565b6000806000841415612c5a57612c538787612c4e88612d6a565b612db9565b9150612d16565b600285108015612c775750600085148015612c755750600484145b155b1515612c8257600080fd5b612c8d878786612db9565b90508215612cd9576001846008020360020a81811515612ca957fe5b048460080260020a7fffffffffffffffffffffffffffffffffffffffffffffffffffffffffffffffff0202811790505b6000851415612cfa5764010000000081811515612cf257fe5b069050612d12565b6801000000000000000081811515612d0e57fe5b0690505b8091505b5095945050505050565b612d3f8484846003600886811515612d3457fe5b041660078616612e18565b50505050565b600080612d558360006008612db9565b9150612d6383600880612db9565b9050915091565b600080821415612d7d5760049050612db4565b6001821415612d8f5760089050612db4565b6002821415612da15760049050612db4565b6003821415612db35760089050612db4565b5b919050565b6000806000806000925060019150600090505b84811015612e0b578187828801815181101515612de557fe5b9060200190602002015160ff160283019250610100820291508080600101915050612dcc565b8293505050509392505050565b6000811415612e3a57612e358585612e2f85612d6a565b86612bdb565b612e6f565b600282108015612e575750600082148015612e555750600481145b155b1515612e6257600080fd5b612e6e85858386612bdb565b5b5050505050565b602060405190810160405280600081525090565b6020604051908101604052806000815250905600a165627a7a723058206bf7f330fd7495c3987633310a6a54490399d63d4ecaa3eed4eb302da8f21c970029",
  "source": "pragma solidity ^0.4.15;\n\nimport \"./alu.sol\";\n\ncontract Instruction is ALU {\n\n    address winner;\n\n    struct Roots {\n        bytes32 code;\n        bytes32 stack;\n        bytes32 mem;\n        bytes32 globals;\n        bytes32 calltable;\n        bytes32 calltypes;\n        bytes32 call_stack;\n        bytes32 input;\n    }\n\n    struct VM {\n        uint pc;\n        uint stack_ptr;\n        uint call_ptr;\n        uint memsize;\n    }\n    \n    VM vm;\n    Roots vm_r;\n\n    struct Machine {\n        bytes32 vm;\n        bytes32 op;\n        uint reg1;\n        uint reg2;\n        uint reg3;\n        uint ireg;\n    }\n    \n    function setVM2(bytes32[8] roots, uint[4] pointers) internal {\n        vm_r.code = roots[0];\n        vm_r.stack = roots[1];\n        vm_r.mem = roots[2];\n        vm_r.call_stack = roots[3];\n        vm_r.globals = roots[4];\n        vm_r.calltable = roots[5];\n        vm_r.calltypes = roots[6];\n        vm_r.input = roots[7];\n\n        vm.pc = pointers[0];\n        vm.stack_ptr = pointers[1];\n        vm.call_ptr = pointers[2];\n        vm.memsize = pointers[3];\n    }\n    \n    function hashVM() internal view returns (bytes32) {\n        bytes32[] memory arr = new bytes32[](12);\n        arr[0] = vm_r.code;\n        arr[1] = vm_r.mem;\n        arr[2] = vm_r.stack;\n        arr[3] = vm_r.globals;\n        arr[4] = vm_r.call_stack;\n        arr[5] = vm_r.calltable;\n        arr[6] = vm_r.calltypes;\n        arr[7] = vm_r.input;\n        arr[8] = bytes32(vm.pc);\n        arr[9] = bytes32(vm.stack_ptr);\n        arr[10] = bytes32(vm.call_ptr);\n        arr[11] = bytes32(vm.memsize);\n        return keccak256(arr);\n    }\n    \n    Machine m;\n    \n    function setMachine(\n        bytes32 vm_,\n        bytes32 op,\n        uint reg1,\n        uint reg2,\n        uint reg3,\n        uint ireg) internal {\n        m.vm = vm_;\n        m.op = op;\n        m.reg1 = reg1;\n        m.reg2 = reg2;\n        m.reg3 = reg3;\n        m.ireg = ireg;\n    }\n    \n    function hashMachine() internal view returns (bytes32) {\n        return keccak256(m.vm, m.op, m.reg1, m.reg2, m.reg3, m.ireg);\n    }\n    \n    function getLeaf(bytes32[] proof, uint loc) internal pure returns (bytes32) {\n        require(proof.length >= 2);\n        if (loc%2 == 0) return proof[0];\n        else return proof[1];\n    }\n    \n    function getRoot(bytes32[] proof, uint loc) internal pure returns (bytes32) {\n        require(proof.length >= 2);\n        bytes32 res = keccak256(proof[0], proof[1]);\n        for (uint i = 2; i < proof.length; i++) {\n            loc = loc/2;\n            if (loc%2 == 0) res = keccak256(res, proof[i]);\n            else res = keccak256(proof[i], res);\n        }\n        require(loc < 2);\n        return res;\n    }\n\n    function getImmed(bytes32 op) internal pure returns (uint256) {\n        // it is the first 8 bytes\n        return uint(op)/(2**(13*8));\n    }\n\n    \n    function readPosition(uint hint) internal view returns (uint) {\n        assert(hint > 4);\n        if (hint == 5) return m.reg1;\n        else if (hint == 6) return vm.stack_ptr-1;\n        else if (hint == 7) return vm.stack_ptr-2;\n        else if (hint == 8) return vm.stack_ptr-m.reg1; // Stack in reg\n        else if (hint == 9) return vm.stack_ptr-m.reg2;\n        else if (hint == 14) return vm.call_ptr-1;\n        else if (hint == 15) return (m.reg1+m.ireg)/8;\n        else if (hint == 16) return m.reg1;\n        else if (hint == 17) return (m.reg1+m.ireg)/8 + 1;\n        else if (hint == 18) return m.reg1;\n        else if (hint == 19) return m.reg1;\n    }\n\n    function writePosition(uint hint) internal view returns (uint) {\n        assert(hint > 0);\n        if (hint == 2) return vm.stack_ptr-m.reg1;\n        else if (hint == 3) return vm.stack_ptr;\n        else if (hint == 4) return vm.stack_ptr-1;\n        else if (hint == 5) return m.reg1+m.reg2;\n        else if (hint == 6) return vm.call_ptr;\n        else if (hint == 8) return m.reg1;\n        else if (hint == 9) return vm.stack_ptr-2;\n        else if (hint & 0xc0 == 0x80) return (m.reg1+m.ireg)/8;\n        else if (hint & 0xc0 == 0xc0) return (m.reg1+m.ireg)/8 + 1;\n    }\n\n    function readRoot(uint hint) internal view returns (bytes32) {\n        assert(hint > 4);\n        if (hint == 5) return vm_r.globals;\n        else if (hint == 6) return vm_r.stack;\n        else if (hint == 7) return vm_r.stack;\n        else if (hint == 8) return vm_r.stack;\n        else if (hint == 9) return vm_r.stack;\n        else if (hint == 14) return vm_r.call_stack;\n        else if (hint == 15) return vm_r.mem;\n        else if (hint == 16) return vm_r.calltable;\n        else if (hint == 17) return vm_r.mem;\n        else if (hint == 18) return vm_r.calltypes;\n        else if (hint == 19) return vm_r.input;\n    }\n    \n    function writeRoot(uint hint) internal view returns (bytes32) {\n        assert(hint > 0);\n        if (hint == 2) return vm_r.stack;\n        else if (hint == 3) return vm_r.stack;\n        else if (hint == 4) return vm_r.stack;\n        else if (hint == 5) return vm_r.mem;\n        else if (hint == 6) return vm_r.call_stack;\n        else if (hint == 8) return vm_r.globals;\n        else if (hint == 9) return vm_r.stack;\n        else return vm_r.mem;\n    }\n    \n    function checkReadProof(bytes32[] proof, uint loc, uint hint) internal view returns (bool) {\n        if (hint <= 4) return true;\n        return readPosition(hint) == loc && readRoot(hint) == getRoot(proof, loc);\n    }\n    \n    function checkWriteProof(bytes32[] proof, uint loc, uint hint) internal view returns (bool) {\n        if (hint == 0) return true;\n        return writePosition(hint) == loc && writeRoot(hint) == getRoot(proof, loc);\n    }\n    \n    function readFromProof(bytes32[] proof, uint loc, uint hint) internal view returns (uint) {\n        if (hint == 0) return 0;\n        if (hint == 1) return m.ireg;\n        if (hint == 2) return vm.pc+1;\n        if (hint == 3) return vm.stack_ptr;\n        if (hint == 4) return vm.memsize;\n        return uint(getLeaf(proof, loc));\n    }\n    \n    function makeChange(bytes32[] proof, uint loc, uint v) internal pure returns (bytes32) {\n        assert(proof.length >= 2);\n        if (loc%2 == 0) proof[0] = bytes32(v);\n        else proof[1] = bytes32(v);\n        return getRoot(proof, loc);\n    }\n\n    uint debug;\n\n    function makeMemChange1(bytes32[] proof, uint loc, uint v, uint hint) internal view returns (bytes32) {\n        assert(proof.length >= 2);\n        \n        uint old = uint(getLeaf(proof, loc));\n        uint8[] memory mem = toMemory(old, 0);\n        storeX(mem, (m.reg1+m.ireg)%8, v, hint);\n        uint res; uint extra;\n        (res, extra) = fromMemory(mem);\n        \n        if (loc%2 == 0) proof[0] = bytes32(res);\n        else proof[1] = bytes32(res);\n        return getRoot(proof, loc);\n    }\n    \n    function makeMemChange2(bytes32[] proof, uint loc, uint v, uint hint) internal view returns (bytes32) {\n        assert(proof.length >= 2);\n        \n        uint old = uint(getLeaf(proof, loc));\n        uint8[] memory mem = toMemory(0, old);\n        storeX(mem, (m.reg1+m.ireg)%8, v, hint);\n        uint res; uint extra;\n        (extra, res) = fromMemory(mem);\n        \n        if (loc%2 == 0) proof[0] = bytes32(res);\n        else proof[1] = bytes32(res);\n        return getRoot(proof, loc);\n    }\n    \n    function writeStuff(uint hint, bytes32[] proof, uint loc, uint v) internal {\n        if (hint == 0) return;\n        bytes32 root;\n        if (hint & 0xc0 == 0x80) root = makeMemChange1(proof, loc, v, hint);\n        else if (hint & 0xc0 == 0xc0) root = makeMemChange2(proof, loc, v, hint);\n        else root = makeChange(proof, loc, v);\n        \n        if (hint == 2) vm_r.stack = root;\n        else if (hint == 3) vm_r.stack = root;\n        else if (hint == 4) vm_r.stack = root;\n        else if (hint == 5) vm_r.mem = root;\n        else if (hint == 6) vm_r.call_stack = root;\n        else if (hint == 8) vm_r.globals = root;\n        else if (hint == 9) vm_r.stack = root;\n        else vm_r.mem = root;\n    }\n    \n    function handlePointer(uint hint, uint ptr) internal view returns (uint) {\n        if (hint == 0) return ptr - m.reg1;\n        else if (hint == 1) return m.reg1;\n        else if (hint == 2) return m.reg2;\n        else if (hint == 3) return m.reg3;\n        else if (hint == 4) return ptr+1;\n        else if (hint == 5) return ptr-1;\n        else if (hint == 6) return ptr;\n        else if (hint == 7) return ptr-2;\n        else if (hint == 8) return ptr-1-m.ireg;\n    }\n\n    function performFetch(bytes32 state1, bytes32[] proof) internal view returns (bytes32) {\n        require(state1 == hashVM());\n        bytes32 op = getLeaf(proof, vm.pc);\n        require(vm_r.code == getRoot(proof, vm.pc));\n        return keccak256(state1, op);\n    }\n\n    function performInit(bytes32 state1, bytes32 op) internal returns (bytes32) {\n        m.vm = hashVM();\n        m.op = op;\n        m.reg1 = 0;\n        m.reg2 = 0;\n        m.reg3 = 0;\n        m.ireg = getImmed(op);\n        require(state1 == keccak256(m.vm, op));\n        return hashMachine();\n    }\n    function performRead1(bytes32 state1, bytes32[] proof, uint loc) internal returns (bytes32) {\n        require(m.vm == hashVM());\n        require(state1 == hashMachine());\n        uint hint = (uint(m.op)/2**(8*0))&0xff;\n        require(checkReadProof(proof, loc, hint));\n        m.reg1 = readFromProof(proof, loc, hint);\n        return hashMachine();\n    }\n    function performRead2(bytes32 state1, bytes32[] proof, uint loc) internal returns (bytes32) {\n        require(m.vm == hashVM());\n        require(state1 == hashMachine());\n        uint hint = (uint(m.op)/2**(8*1))&0xff;\n        require(checkReadProof(proof, loc, hint));\n        m.reg2 = readFromProof(proof, loc, hint);\n        // debug = hint;\n        return hashMachine();\n    }\n    function performRead3(bytes32 state1, bytes32[] proof, uint loc) internal returns (bytes32) {\n        require(m.vm == hashVM());\n        require(state1 == hashMachine());\n        uint hint = (uint(m.op)/2**(8*2))&0xff;\n        require(checkReadProof(proof, loc, hint));\n        m.reg3 = readFromProof(proof, loc, hint);\n        return hashMachine();\n    }\n    \n    function performALU(bytes32 state1) internal returns (bytes32) {\n        require(state1 == hashMachine());\n        uint hint = (uint(m.op)/2**(8*3))&0xff;\n        m.reg1 = handleALU(hint, m.reg1, m.reg2, m.reg3, m.ireg);\n        return hashMachine();\n    }\n    \n    function performWrite1(bytes32 state1, bytes32[] proof, uint loc) internal returns (bytes32) {\n        require(m.vm == hashVM());\n        require(state1 == hashMachine());\n        uint target = (uint(m.op)/2**(8*4))&0xff;\n        uint hint = (uint(m.op)/2**(8*5))&0xff;\n        debug = hint;\n        require(checkWriteProof(proof, loc, hint));\n        uint v;\n        if (target == 1) v = m.reg1;\n        if (target == 2) v = m.reg2;\n        if (target == 3) v = m.reg3;\n        writeStuff(hint, proof, loc, v);\n        \n        m.vm = hashVM();\n        return hashMachine();\n    }\n    function performWrite2(bytes32 state1, bytes32[] proof, uint loc) internal returns (bytes32) {\n        require(m.vm == hashVM());\n        require(state1 == hashMachine());\n        uint target = (uint(m.op)/2**(8*6))&0xff;\n        uint hint = (uint(m.op)/2**(8*7))&0xff;\n        debug = hint;\n        require(checkWriteProof(proof, loc, hint));\n        \n        uint v;\n        if (target == 1) v = m.reg1;\n        if (target == 2) v = m.reg2;\n        if (target == 3) v = m.reg3;\n        writeStuff(hint, proof, loc, v);\n        \n        m.vm = hashVM();\n        return hashMachine();\n    }\n    \n    function performUpdatePC(bytes32 state1) internal returns (bytes32) {\n        require(m.vm == hashVM());\n        require(state1 == hashMachine());\n        uint hint = (uint(m.op)/2**(8*11))&0xff;\n        vm.pc = handlePointer(hint, vm.pc);\n        m.vm = hashVM();\n        return hashMachine();\n    }\n    function performUpdateStackPtr(bytes32 state1) internal returns (bytes32) {\n        require(m.vm == hashVM());\n        require(state1 == hashMachine());\n        uint hint = (uint(m.op)/2**(8*9))&0xff;\n        vm.stack_ptr = handlePointer(hint, vm.stack_ptr);\n        m.vm = hashVM();\n        return hashMachine();\n    }\n    function performUpdateCallPtr(bytes32 state1) internal returns (bytes32) {\n        require(m.vm == hashVM());\n        require(state1 == hashMachine());\n        uint hint = (uint(m.op)/2**(8*8))&0xff;\n        vm.call_ptr = handlePointer(hint, vm.call_ptr);\n        m.vm = hashVM();\n        return hashMachine();\n    }\n    function performUpdateMemsize(bytes32 state1) internal returns (bytes32) {\n        require(m.vm == hashVM());\n        require(state1 == hashMachine());\n        uint hint = (uint(m.op)/2**(8*12))&0xff;\n        if (hint == 1) vm.memsize = vm.memsize+m.reg1;\n        return hashVM();\n    }\n    \n    function performPhase(bytes32 state, uint init, bytes32[] proof, uint loc, bytes32 op) internal returns (bytes32) {\n        if (init == 0) return performFetch(state, proof);\n        if (init == 1) return performInit(state, op);\n        if (init == 2) return performRead1(state, proof, loc);\n        if (init == 3) return performRead2(state, proof, loc);\n        if (init == 4) return performRead3(state, proof, loc);\n        if (init == 5) return performALU(state);\n        if (init == 6) return performWrite1(state, proof, loc);\n        if (init == 7) return performWrite2(state, proof, loc);\n        if (init == 8) return performUpdatePC(state);\n        if (init == 9) return performUpdateStackPtr(state);\n        if (init == 10) return performUpdateCallPtr(state);\n        if (init == 11) return performUpdateMemsize(state);\n    }\n\n    function judge(bytes32[13] res, uint q,\n                        bytes32[] proof, uint loc, bytes32 fetched_op,\n                        bytes32 vm_, bytes32 op, uint[4] regs,\n                        bytes32[8] roots, uint[4] pointers) public returns (uint) {\n        // setup(res,msg.sender,msg.sender,q);\n        setMachine(vm_, op, regs[0], regs[1], regs[2], regs[3]);\n        setVM2(roots, pointers);\n        require(performPhase(res[q], q, proof, loc, fetched_op) == res[q+1]);\n        // debug = performPhase(res[q], q, proof, loc, fetched_op);\n        winner = msg.sender;\n        return debug;\n    }\n\n}\n",
  "sourcePath": "/home/hswick/projects/webasm-solidity/contracts/instruction.sol",
  "compiler": {
    "name": "solc",
    "version": "0.4.18+commit.9cf6e910.Emscripten.clang"
  },
  "schemaVersion": "1.0.1",
  "updatedAt": "2018-01-19T04:57:05.394Z"
}