{
  "contractName": "Interpreter",
  "abi": [
    {
      "constant": false,
      "inputs": [
        {
          "name": "limit",
          "type": "uint256"
        },
        {
          "name": "code",
          "type": "bytes32[]"
        },
        {
          "name": "roots",
          "type": "uint256[]"
        },
        {
          "name": "pc",
          "type": "uint256"
        },
        {
          "name": "stack_ptr",
          "type": "uint256"
        },
        {
          "name": "call_ptr",
          "type": "uint256"
        },
        {
          "name": "memsize",
          "type": "uint256"
        }
      ],
      "name": "run2",
      "outputs": [
        {
          "name": "",
          "type": "int64"
        },
        {
          "name": "",
          "type": "uint256"
        },
        {
          "name": "",
          "type": "bytes32"
        }
      ],
      "payable": false,
      "stateMutability": "nonpayable",
      "type": "function"
    },
    {
      "constant": false,
      "inputs": [
        {
          "name": "code",
          "type": "bytes32[]"
        },
        {
          "name": "stack",
          "type": "bytes32[]"
        },
        {
          "name": "mem",
          "type": "bytes32[]"
        },
        {
          "name": "globals",
          "type": "bytes32[]"
        },
        {
          "name": "calltable",
          "type": "bytes32[]"
        },
        {
          "name": "calltypes",
          "type": "bytes32[]"
        },
        {
          "name": "call_stack",
          "type": "bytes32[]"
        },
        {
          "name": "input",
          "type": "bytes32[]"
        },
        {
          "name": "pc",
          "type": "uint256"
        },
        {
          "name": "stack_ptr",
          "type": "uint256"
        },
        {
          "name": "call_ptr",
          "type": "uint256"
        },
        {
          "name": "memsize",
          "type": "uint256"
        }
      ],
      "name": "run",
      "outputs": [
        {
          "name": "",
          "type": "int64"
        }
      ],
      "payable": false,
      "stateMutability": "nonpayable",
      "type": "function"
    }
  ],
  "bytecode": "0x6060604052341561000f57600080fd5b612c938061001e6000396000f30060606040526004361061004c576000357c0100000000000000000000000000000000000000000000000000000000900463ffffffff1680633326796114610051578063927675b814610148575b600080fd5b341561005c57600080fd5b610116600480803590602001909190803590602001908201803590602001908080602002602001604051908101604052809392919081815260200183836020028082843782019150505050505091908035906020019082018035906020019080806020026020016040519081016040528093929190818152602001838360200280828437820191505050505050919080359060200190919080359060200190919080359060200190919080359060200190919050506103a0565b604051808460070b60070b81526020018381526020018260001916600019168152602001935050505060405180910390f35b341561015357600080fd5b610384600480803590602001908201803590602001908080602002602001604051908101604052809392919081815260200183836020028082843782019150505050505091908035906020019082018035906020019080806020026020016040519081016040528093929190818152602001838360200280828437820191505050505050919080359060200190820180359060200190808060200260200160405190810160405280939291908181526020018383602002808284378201915050505050509190803590602001908201803590602001908080602002602001604051908101604052809392919081815260200183836020028082843782019150505050505091908035906020019082018035906020019080806020026020016040519081016040528093929190818152602001838360200280828437820191505050505050919080359060200190820180359060200190808060200260200160405190810160405280939291908181526020018383602002808284378201915050505050509190803590602001908201803590602001908080602002602001604051908101604052809392919081815260200183836020028082843782019150505050505091908035906020019082018035906020019080806020026020016040519081016040528093929190818152602001838360200280828437820191505050505050919080359060200190919080359060200190919080359060200190919080359060200190919050506105ee565b604051808260070b60070b815260200191505060405180910390f35b600080600088600460000190805190602001906103be929190612baf565b508760008151811015156103ce57fe5b906020019060200201516004600101816103e89190612c02565b508760018151811015156103f857fe5b906020019060200201516004600201816104129190612c02565b5087600281518110151561042257fe5b9060200190602002015160046003018161043c9190612c02565b5087600381518110151561044c57fe5b9060200190602002015160048001816104659190612c02565b5087600481518110151561047557fe5b9060200190602002015160046005018161048f9190612c02565b5087600581518110151561049f57fe5b906020019060200201516004600601816104b99190612c02565b508760068151811015156104c957fe5b906020019060200201516004600701816104e39190612c02565b508660008001819055508560006001018190555084600060020181905550836000600301819055505b60008a11801561055057506b0400060600010001060000006001026004600001600080015481548110151561053d57fe5b9060005260206000209001546000191614155b1561056b5761055d61071b565b8980600190039a505061050c565b6004600101600081548110151561057e57fe5b90600052602060002090015460019004600080015460046001016040518082805480156105ce57602002820191906000526020600020905b815460001916815260200190600101908083116105b6575b505091505060405180910390209250925092509750975097945050505050565b60008c60046000019080519060200190610609929190612baf565b508b60046001019080519060200190610623929190612baf565b508a6004600201908051906020019061063d929190612baf565b508960046003019080519060200190610657929190612baf565b5088600480019080519060200190610670929190612baf565b50876004600501908051906020019061068a929190612baf565b5086600460060190805190602001906106a4929190612baf565b5085600460070190805190602001906106be929190612baf565b50846000800181905550836000600101819055508260006002018190555081600060030181905550600460010160008154811015156106f957fe5b9060005260206000209001546001900490509c9b505050505050505050505050565b6000601454141561072f5761072e610825565b5b600160145414156107435761074261083f565b5b6002601454141561075757610756610877565b5b6003601454141561076b5761076a610893565b5b6004601454141561077f5761077e6108af565b5b60056014541415610793576107926108cb565b5b600660145414156107a7576107a6610917565b5b600760145414156107bb576107ba61097f565b5b600860145414156107cf576107ce6109e7565b5b600960145414156107e3576107e2610a0b565b5b600a60145414156107f7576107f6610a2f565b5b600b601454141561080b5761080a610a53565b5b600c60016014540181151561081c57fe5b06601481905550565b61083d610838610833610a81565b610a8d565b610ab4565b565b6108496000610ac5565b6108536000610ad2565b61085d6000610adf565b61087561087061086b610aec565b610af9565b610b20565b565b61089161088c6108876000610b2d565b610b56565b610ac5565b565b6108ad6108a86108a36001610b2d565b610b56565b610ad2565b565b6108c96108c46108bf6002610b2d565b610b56565b610adf565b565b6109056109006108db6003610b2d565b6108e3610d66565b6108eb610d73565b6108f3610d80565b6108fb610d8d565b610d9a565b610ac5565b61090f6003610b2d565b601381905550565b60008060006109266004610b2d565b92506109326005610b2d565b9150600183141561094857610945610d66565b90505b600283141561095c57610959610d73565b90505b60038314156109705761096d610d80565b90505b61097a828261160d565b505050565b600080600061098e6006610b2d565b925061099a6007610b2d565b915060018314156109b0576109ad610d66565b90505b60028314156109c4576109c1610d73565b90505b60038314156109d8576109d5610d80565b90505b6109e2828261160d565b505050565b610a09610a046109f7600b610b2d565b6109ff610a81565b611851565b61192f565b565b610a2d610a28610a1b6009610b2d565b610a2361193b565b611851565b611947565b565b610a51610a4c610a3f6008610b2d565b610a47611954565b611851565b611960565b565b6001610a5f600c610b2d565b1415610a7f57610a7e610a70610d66565b610a7861196d565b01611979565b5b565b60008060000154905090565b6000600460000182815481101515610aa157fe5b9060005260206000209001549050919050565b80600e600001816000191690555050565b80600e6001018190555050565b80600e6002018190555050565b80600e6003018190555050565b6000600e60000154905090565b60006d01000000000000000000000000008260019004811515610b1857fe5b049050919050565b80600e6004018190555050565b600060ff8260080260020a610b40610aec565b60019004811515610b4d57fe5b04169050919050565b6000806000831415610b6b5760009150610d60565b6001831415610b8357610b7c610d8d565b9150610d60565b6002831415610b9e576001610b96610a81565b019150610d60565b6003831415610bb657610baf61193b565b9150610d60565b6004831415610bce57610bc761196d565b9150610d60565b6014831415610bf657610bef610be2610d73565b610bea610d66565b611986565b9150610d60565b6015831415610c1e57610c17610c0a610d73565b610c12610d66565b6119ca565b9150610d60565b610c2783611a0e565b90506005831415610c4257610c3b81611b97565b9150610d60565b6006831415610c5b57610c5481611bc2565b9150610d60565b6007831415610c7457610c6d81611bc2565b9150610d60565b6008831415610c8d57610c8681611bc2565b9150610d60565b6009831415610ca657610c9f81611bc2565b9150610d60565b600e831415610cbf57610cb881611bed565b9150610d60565b600f831415610cd857610cd181611c18565b9150610d60565b6010831415610cf157610cea81611c43565b9150610d60565b6011831415610d0a57610d0381611c18565b9150610d60565b6012831415610d2357610d1c81611c6d565b9150610d60565b6013831415610d3c57610d3581611c98565b9150610d60565b6016831415610d5557610d4e81611bc2565b9150610d60565b60001515610d5f57fe5b5b50919050565b6000600e60010154905090565b6000600e60020154905090565b6000600e60030154905090565b6000600e60040154905090565b600080610da5612c2e565b8691506000881415610db957869250611602565b6001881480610dc85750600688145b15610dd257600080fd5b60c08089161415610e0957610de78686611cc3565b9050610e02816008868a01811515610dfb57fe5b068a611d1a565b915061159f565b6002881415610e2b5785871015610e2257869150610e26565b8591505b61159e565b6003881415610e4f57600086141515610e4657869150610e4a565b8491505b61159d565b6004881415610e715783871015610e665786610e68565b835b8601915061159c565b6007881415610e91578584141515610e8857600080fd5b6000915061159b565b6045881480610ea05750605088145b15610ec1576000871415610eb75760019150610ebc565b600091505b61159a565b6046881480610ed05750605188145b15610ef05785871415610ee65760019150610eeb565b600091505b611599565b6047881480610eff5750605288145b15610f20578587141515610f165760019150610f1b565b600091505b611598565b6048881415610f4a578560030b8760030b1215610f405760019150610f45565b600091505b611597565b6049881415610f7a578563ffffffff168763ffffffff161015610f705760019150610f75565b600091505b611596565b604a881415610fa4578560030b8760030b1315610f9a5760019150610f9f565b600091505b611595565b604b881415610fd4578563ffffffff168763ffffffff161115610fca5760019150610fcf565b600091505b611594565b604c881415610fff578560030b8760030b131515610ff55760019150610ffa565b600091505b611593565b604d881415611030578563ffffffff168763ffffffff16111515611026576001915061102b565b600091505b611592565b604e88141561105b578560030b8760030b1215156110515760019150611056565b600091505b611591565b604f88141561108c578563ffffffff168763ffffffff161015156110825760019150611087565b600091505b611590565b60538814156110b6578560070b8760070b12156110ac57600191506110b1565b600091505b61158f565b60548814156110ee578567ffffffffffffffff168767ffffffffffffffff1610156110e457600191506110e9565b600091505b61158e565b6055881415611118578560070b8760070b131561110e5760019150611113565b600091505b61158d565b6056881415611150578567ffffffffffffffff168767ffffffffffffffff161115611146576001915061114b565b600091505b61158c565b605788141561117b578560070b8760070b1315156111715760019150611176565b600091505b61158b565b60588814156111b4578567ffffffffffffffff168767ffffffffffffffff161115156111aa57600191506111af565b600091505b61158a565b60598814156111df578560070b8760070b1215156111d557600191506111da565b600091505b611589565b605a881415611218578567ffffffffffffffff168767ffffffffffffffff1610151561120e5760019150611213565b600091505b611588565b60678814156112345761122a87611d55565b60ff169150611587565b60688814156112505761124687611e51565b60ff169150611586565b606988141561126c5761126287611f41565b60ff169150611585565b60798814156112885761127e87611fe5565b60ff169150611584565b607a8814156112a45761129a8761214f565b60ff169150611583565b607b8814156112c0576112b68761229c565b60ff169150611582565b606a8814806112cf5750607c88145b156112de578587019150611581565b606b8814806112ed5750607d88145b156112fc578587039150611580565b606c88148061130b5750607e88145b1561131a57858702915061157f565b606d88141561133f578560030b8760030b81151561133457fe5b0560030b915061157e565b607f881415611364578560070b8760070b81151561135957fe5b0560070b915061157d565b606e8814806113735750608088145b1561138b57858781151561138357fe5b04915061157c565b606f8814156113b0578560030b8760030b8115156113a557fe5b0760030b915061157b565b60818814156113d5578560070b8760070b8115156113ca57fe5b0760070b915061157a565b60708814806113e45750608288145b156113fc5785878115156113f457fe5b069150611579565b607188148061140b5750608388145b1561141a578587169150611578565b60728814806114295750608488145b15611438578587179150611577565b60738814806114475750608588145b15611456578587189150611576565b60748814806114655750608688145b15611477578560020a87029150611575565b60758814806114865750608788145b156114a1578560020a8781151561149957fe5b049150611574565b60768814806114b05750608888145b156114cb578560020a878115156114c357fe5b049150611573565b60778814156114f357640100000000878115156114e457fe5b048660020a8802179150611572565b607888141561151b5764010000000087028660020a8881151561151257fe5b04179150611571565b608988141561154757680100000000000000008781151561153857fe5b048660020a8802179150611570565b608a88141561156f576801000000000000000087028660020a8881151561156a57fe5b041791505b5b5b5b5b5b5b5b5b5b5b5b5b5b5b5b5b5b5b5b5b5b5b5b5b5b5b5b5b5b5b5b5b5b5b5b5b5b5b5b5b5b5b5b5b5b5b5b5b606288101580156115b1575060788811155b156115ce57640100000000828115156115c657fe5b0691506115fe565b607c88101580156115e05750608a8811155b156115fd5768010000000000000000828115156115f957fe5b0691505b5b8192505b505095945050505050565b60008083141561161c5761184c565b600b8314156116435761163e611630610d66565b611638610d73565b8461239f565b61184b565b600c8314156116625761165d611657610d66565b836123e5565b61184a565b600d83141561168957611684611676610d66565b61167e610d73565b84612413565b611849565b60108314156116a05761169b82612459565b611848565b60118314156116b7576116b282612484565b611847565b60128314156116ce576116c9826124af565b611846565b60138314156116e5576116e0826124da565b611845565b60148314156116fc576116f782612503565b611844565b60158314156117135761170e8261252e565b611843565b61171c83612559565b9050608060c08416141561173a576117358183856126f8565b611842565b60c0808416141561175557611750818385612769565b611841565b600283141561176d5761176881836127da565b611840565b60038314156117855761178081836127da565b61183f565b600483141561179d5761179881836127da565b61183e565b60068314156117b5576117b08183612807565b61183d565b60088314156117cd576117c88183612834565b61183c565b60098314156117e5576117e081836127da565b61183b565b600a8314156117fd576117f88183612861565b61183a565b600e83141561181557611810818361288e565b611839565b600f83141561182d5761182881836128ba565b611838565b6000151561183757fe5b5b5b5b5b5b5b5b5b5b5b5b5b5b5b5b5b5b5b5b5b5b505050565b60008083141561186c57611863610d66565b82039050611929565b60018314156118845761187d610d66565b9050611929565b600283141561189c57611895610d73565b9050611929565b60038314156118b4576118ad610d80565b9050611929565b60048314156118c857600182019050611929565b60058314156118dc57600182039050611929565b60068314156118ed57819050611929565b600783141561190157600282039050611929565b600883141561191e57611912610d8d565b60018303039050611929565b6000151561192857fe5b5b92915050565b80600080018190555050565b60008060010154905090565b8060006001018190555050565b60008060020154905090565b8060006002018190555050565b60008060030154905090565b8060006003018190555050565b600060046008018381548110151561199a57fe5b9060005260206000209001828154811015156119b257fe5b90600052602060002090015460019004905092915050565b60006004600901838154811015156119de57fe5b9060005260206000209001828154811015156119f657fe5b90600052602060002090015460019004905092915050565b6000600482111515611a1c57fe5b6005821415611a3457611a2d610d66565b9050611b92565b6006821415611a4f576001611a4761193b565b039050611b92565b6007821415611a6a576002611a6261193b565b039050611b92565b6008821415611a8b57611a7b610d66565b611a8361193b565b039050611b92565b6009821415611aac57611a9c610d73565b611aa461193b565b039050611b92565b600e821415611ac7576001611abf611954565b039050611b92565b600f821415611af4576008611ada610d8d565b611ae2610d66565b01811515611aec57fe5b049050611b92565b6010821415611b0c57611b05610d66565b9050611b92565b6011821415611b3c5760016008611b21610d8d565b611b29610d66565b01811515611b3357fe5b04019050611b92565b6012821415611b5457611b4d610d66565b9050611b92565b6013821415611b6c57611b65610d66565b9050611b92565b6016821415611b87576003611b7f61193b565b039050611b92565b60001515611b9157fe5b5b919050565b6000600460030182815481101515611bab57fe5b906000526020600020900154600190049050919050565b6000600460010182815481101515611bd657fe5b906000526020600020900154600190049050919050565b6000600460060182815481101515611c0157fe5b906000526020600020900154600190049050919050565b6000600460020182815481101515611c2c57fe5b906000526020600020900154600190049050919050565b60006004800182815481101515611c5657fe5b906000526020600020900154600190049050919050565b6000600460050182815481101515611c8157fe5b906000526020600020900154600190049050919050565b6000600460070182815481101515611cac57fe5b906000526020600020900154600190049050919050565b611ccb612c2e565b611cd3612c2e565b6010604051805910611ce25750595b90808252806020026020018201604052509050611d038160006008876128e7565b611d1081600880866128e7565b8091505092915050565b6000611d4c84846003601086811515611d2f57fe5b04166007600287811515611d3f57fe5b0416600180881614612940565b90509392505050565b6000806000808463ffffffff161415611d715760209250611e4a565b83915060009050600063ffff0000831663ffffffff161415611da45760108101905060108263ffffffff169060020a0291505b600063ff000000831663ffffffff161415611dd05760088101905060088263ffffffff169060020a0291505b600063f0000000831663ffffffff161415611dfc5760048101905060048263ffffffff169060020a0291505b600063c0000000831663ffffffff161415611e285760028101905060028263ffffffff169060020a0291505b60006308000000831663ffffffff161415611e465780806001019150505b8092505b5050919050565b6000806000808463ffffffff161415611e6d5760209250611f3a565b83915060009050600061ffff831663ffffffff161415611e9f5760108101905060108263ffffffff169060020a900491505b600060ff831663ffffffff161415611ec95760088101905060088263ffffffff169060020a900491505b6000600f831663ffffffff161415611ef35760048101905060048263ffffffff169060020a900491505b60006003831663ffffffff161415611f1d5760028101905060028263ffffffff169060020a900491505b60006001831663ffffffff161415611f36576001810190505b8092505b5050919050565b600080829050635555555560018263ffffffff169060020a90041663555555558216019050633333333360028263ffffffff169060020a90041663333333338216019050630f0f0f0f60048263ffffffff169060020a900416630f0f0f0f821601905062ff00ff60088263ffffffff169060020a90041662ff00ff821601905061ffff60108263ffffffff169060020a90041661ffff821601905080915050919050565b6000806000808467ffffffffffffffff1614156120055760409250612148565b83915060009050600067ffffffff00000000831667ffffffffffffffff1614156120445760208101905060208267ffffffffffffffff169060020a0291505b600067ffff000000000000831667ffffffffffffffff1614156120785760108101905060108267ffffffffffffffff169050505b600067ff00000000000000831667ffffffffffffffff1614156120b05760088101905060088267ffffffffffffffff169060020a0291505b600067f000000000000000831667ffffffffffffffff1614156120e85760048101905060048267ffffffffffffffff169060020a0291505b600067c000000000000000831667ffffffffffffffff1614156121205760028101905060028267ffffffffffffffff169060020a0291505b6000678000000000000000831667ffffffffffffffff161415612144576001810190505b8092505b5050919050565b6000806000808467ffffffffffffffff16141561216f5760409250612295565b83915060009050600063ffffffff831667ffffffffffffffff1614156121ab5760208101905060208267ffffffffffffffff169060020a900491505b600061ffff831667ffffffffffffffff1614156121de5760108101905060108267ffffffffffffffff169060020a900491505b600060ff831667ffffffffffffffff1614156122105760088101905060088267ffffffffffffffff169060020a900491505b6000600f831667ffffffffffffffff1614156122425760048101905060048267ffffffffffffffff169060020a900491505b60006003831667ffffffffffffffff1614156122745760028101905060028267ffffffffffffffff169060020a900491505b60006001831667ffffffffffffffff161415612291576001810190505b8092505b5050919050565b60008082905067555555555555555560018267ffffffffffffffff169060020a900416675555555555555555821601905067333333333333333360028267ffffffffffffffff169060020a9004166733333333333333338216019050670f0f0f0f0f0f0f0f60048267ffffffffffffffff169060020a900416670f0f0f0f0f0f0f0f821601905066ff00ff00ff00ff60088267ffffffffffffffff169060020a90041666ff00ff00ff00ff821601905065ffff0000ffff60108267ffffffffffffffff169060020a90041665ffff0000ffff821601905063ffffffff60208267ffffffffffffffff169060020a90041663ffffffff821601905080915050919050565b806001026004600801848154811015156123b557fe5b9060005260206000209001838154811015156123cd57fe5b90600052602060002090018160001916905550505050565b806004600901838154811015156123f857fe5b90600052602060002090018161240e9190612c02565b505050565b8060010260046009018481548110151561242957fe5b90600052602060002090018381548110151561244157fe5b90600052602060002090018160001916905550505050565b600060046001018161246b9190612c02565b508060020a6004600101816124809190612c02565b5050565b60006004600601816124969190612c02565b508060020a6004600601816124ab9190612c02565b5050565b60006004600301816124c19190612c02565b508060020a6004600301816124d69190612c02565b5050565b600060048001816124eb9190612c02565b508060020a60048001816124ff9190612c02565b5050565b60006004600501816125159190612c02565b508060020a60046005018161252a9190612c02565b5050565b60006004600201816125409190612c02565b508060020a6004600201816125559190612c02565b5050565b6000808211151561256657fe5b600282141561258757612577610d66565b61257f61193b565b0390506126f3565b600382141561259f5761259861193b565b90506126f3565b60048214156125ba5760016125b261193b565b0390506126f3565b60058214156125db576125cb610d73565b6125d3610d66565b0190506126f3565b60068214156125f3576125ec611954565b90506126f3565b600882141561260b57612604610d66565b90506126f3565b600982141561262657600261261e61193b565b0390506126f3565b600a82141561263e57612637610d66565b90506126f3565b600c8214156126565761264f610d66565b90506126f3565b600e82141561266e57612667610d8d565b90506126f3565b600f8214156126865761267f610d8d565b90506126f3565b608060c0831614156126b657600861269c610d8d565b6126a4610d66565b018115156126ae57fe5b0490506126f3565b60c080831614156126e857600160086126cd610d8d565b6126d5610d66565b018115156126df57fe5b040190506126f3565b600015156126f257fe5b5b919050565b6000612702612c2e565b60008061270e87611c18565b935061271b846000611cc3565b925061274583600861272b610d8d565b612733610d66565b0181151561273d57fe5b068888612a2c565b61274e83612a51565b80925081935050506127608783612a76565b50505050505050565b6000612773612c2e565b60008061277f87611c18565b935061278c600085611cc3565b92506127b683600861279c610d8d565b6127a4610d66565b018115156127ae57fe5b068888612a2c565b6127bf83612a51565b80935081925050506127d18783612a76565b50505050505050565b806001026004600101838154811015156127f057fe5b906000526020600020900181600019169055505050565b8060010260046006018381548110151561281d57fe5b906000526020600020900181600019169055505050565b8060010260046003018381548110151561284a57fe5b906000526020600020900181600019169055505050565b8060010260046007018381548110151561287757fe5b906000526020600020900181600019169055505050565b8060010260048001838154811015156128a357fe5b906000526020600020900181600019169055505050565b806001026004600501838154811015156128d057fe5b906000526020600020900181600019169055505050565b60008090505b8281101561293957818582860181518110151561290657fe5b9060200190602002019060ff16908160ff16815250506101008281151561292957fe5b04915080806001019150506128ed565b5050505050565b60008060008414156129665761295f878761295a88612aa3565b612af2565b9150612a22565b60028510801561298357506000851480156129815750600484145b155b151561298e57600080fd5b612999878786612af2565b905082156129e5576001846008020360020a818115156129b557fe5b048460080260020a7fffffffffffffffffffffffffffffffffffffffffffffffffffffffffffffffff0202811790505b6000851415612a0657640100000000818115156129fe57fe5b069050612a1e565b6801000000000000000081811515612a1a57fe5b0690505b8091505b5095945050505050565b612a4b8484846003600886811515612a4057fe5b041660078616612b51565b50505050565b600080612a618360006008612af2565b9150612a6f83600880612af2565b9050915091565b80600102600460020183815481101515612a8c57fe5b906000526020600020900181600019169055505050565b600080821415612ab65760049050612aed565b6001821415612ac85760089050612aed565b6002821415612ada5760049050612aed565b6003821415612aec5760089050612aed565b5b919050565b6000806000806000925060019150600090505b84811015612b44578187828801815181101515612b1e57fe5b9060200190602002015160ff160283019250610100820291508080600101915050612b05565b8293505050509392505050565b6000811415612b7357612b6e8585612b6885612aa3565b866128e7565b612ba8565b600282108015612b905750600082148015612b8e5750600481145b155b1515612b9b57600080fd5b612ba7858583866128e7565b5b5050505050565b828054828255906000526020600020908101928215612bf1579160200282015b82811115612bf0578251829060001916905591602001919060010190612bcf565b5b509050612bfe9190612c42565b5090565b815481835581811511612c2957818360005260206000209182019101612c289190612c42565b5b505050565b602060405190810160405280600081525090565b612c6491905b80821115612c60576000816000905550600101612c48565b5090565b905600a165627a7a7230582094e2ef0a7628b17f7fbf8c2abf1c60c99cfe476607549bd09f635487baa14e3e0029",
  "source": "pragma solidity ^0.4.15;\n\nimport \"./common-offchain.sol\";\n\ncontract Interpreter is CommonOffchain {\n    /**\n    * @dev run the module in its entirety\n    *\n    * @param code the wasm code to run\n    * @param stack the stack\n    * @param mem the linear memory\n    * @param globals the gloval values\n    * @param calltable the calltbale\n    * @param calltypes the calltypes i.e.\n    * @param call_stack the call stack\n    * @param input the input size\n    * @param pc the program counter\n    * @param stack_ptr the stack pointer\n    * @param call_ptr the call pointer\n    * @param memsize the linear memory size\n    *\n    * @return return the wasm module's return value\n    */\n    function run(bytes32[] code, bytes32[] stack, bytes32[] mem, bytes32[] globals, bytes32[] calltable,\n                 bytes32[] calltypes, bytes32[] call_stack, bytes32[] input,\n                 uint pc, uint stack_ptr, uint call_ptr, uint memsize) public returns (int64) {\n        vm_r.code = code;\n        vm_r.stack = stack;\n        vm_r.mem = mem;\n        vm_r.globals = globals;\n        vm_r.calltable = calltable;\n        vm_r.calltypes = calltypes;\n        vm_r.call_stack = call_stack;\n        vm_r.input_size = input;\n        vm.pc = pc;\n        vm.stack_ptr = stack_ptr;\n        vm.call_ptr = call_ptr;\n        vm.memsize = memsize;\n        \n        /*\n        while (vm_r.code[vm.pc] != 0x0000000000000000000000000000000000000000040006060001000106000000) {\n            performPhase();\n        } */\n        return int64(vm_r.stack[0]);\n    }\n\n    /**\n    * @dev run a single step\n    *\n    * @param limit limit of the step\n    * @param code the code\n    * @param roots the roots of the wasm machine state\n    * @param pc program counter\n    * @param stack_ptr stack pointer\n    * @param call_ptr call pointer\n    * @param memsize size of the linear memory\n    *\n    * @return return the top of stack, the program counter and the stack\n    */\n    function run2(uint limit, bytes32[] code,\n                  uint[] roots,\n                 uint pc, uint stack_ptr, uint call_ptr, uint memsize) public returns (int64, uint, bytes32) {\n        vm_r.code = code;\n        vm_r.stack.length = roots[0];\n        vm_r.mem.length = roots[1];\n        vm_r.globals.length = roots[2];\n        vm_r.calltable.length = roots[3];\n        vm_r.calltypes.length = roots[4];\n        vm_r.call_stack.length = roots[5];\n        vm_r.input_size.length = roots[6];\n        vm.pc = pc;\n        vm.stack_ptr = stack_ptr;\n        vm.call_ptr = call_ptr;\n        vm.memsize = memsize;\n        \n        while (limit > 0 && vm_r.code[vm.pc] != 0x0000000000000000000000000000000000000000040006060001000106000000) {\n            performPhase();\n            limit--;\n        }\n        return (int64(vm_r.stack[0]), vm.pc, keccak256(vm_r.stack));\n    }\n}\n\n",
  "sourcePath": "/home/hswick/projects/webasm-solidity/contracts/interpreter.sol",
  "compiler": {
    "name": "solc",
    "version": "0.4.18+commit.9cf6e910.Emscripten.clang"
  },
  "schemaVersion": "1.0.1",
  "updatedAt": "2018-01-19T04:57:05.419Z"
}