{
  "contractName": "Interactive",
  "abi": [
    {
      "constant": false,
      "inputs": [
        {
          "name": "arr",
          "type": "bytes32[]"
        }
      ],
      "name": "report",
      "outputs": [],
      "payable": false,
      "stateMutability": "nonpayable",
      "type": "function"
    },
    {
      "constant": false,
      "inputs": [
        {
          "name": "idx",
          "type": "uint256"
        }
      ],
      "name": "getStep",
      "outputs": [
        {
          "name": "",
          "type": "bytes32"
        }
      ],
      "payable": false,
      "stateMutability": "nonpayable",
      "type": "function"
    },
    {
      "constant": false,
      "inputs": [
        {
          "name": "num",
          "type": "uint256"
        }
      ],
      "name": "query",
      "outputs": [],
      "payable": false,
      "stateMutability": "nonpayable",
      "type": "function"
    },
    {
      "constant": false,
      "inputs": [],
      "name": "gameOver",
      "outputs": [],
      "payable": false,
      "stateMutability": "nonpayable",
      "type": "function"
    },
    {
      "constant": false,
      "inputs": [
        {
          "name": "arr",
          "type": "bytes32[16]"
        }
      ],
      "name": "microStep",
      "outputs": [],
      "payable": false,
      "stateMutability": "nonpayable",
      "type": "function"
    },
    {
      "constant": false,
      "inputs": [],
      "name": "getResult",
      "outputs": [
        {
          "name": "",
          "type": "bytes32[16]"
        }
      ],
      "payable": false,
      "stateMutability": "nonpayable",
      "type": "function"
    },
    {
      "inputs": [
        {
          "name": "p",
          "type": "address"
        },
        {
          "name": "c",
          "type": "address"
        },
        {
          "name": "s",
          "type": "bytes32"
        },
        {
          "name": "e",
          "type": "bytes32"
        },
        {
          "name": "_steps",
          "type": "uint256"
        },
        {
          "name": "par",
          "type": "uint256"
        },
        {
          "name": "to",
          "type": "uint256"
        }
      ],
      "payable": false,
      "stateMutability": "nonpayable",
      "type": "constructor"
    }
  ],
  "bytecode": "0x6060604052341561000f57600080fd5b60405160e080610acb83398101604052808051906020019091908051906020019091908051906020019091908051906020019091908051906020019091908051906020019091908051906020019091905050866000806101000a81548173ffffffffffffffffffffffffffffffffffffffff021916908373ffffffffffffffffffffffffffffffffffffffff16021790555085600160006101000a81548173ffffffffffffffffffffffffffffffffffffffff021916908373ffffffffffffffffffffffffffffffffffffffff1602179055508460028160001916905550836003816000191690555082600481905550816007819055506002600454036007541115610122576002600454036007819055505b80600881905550436009819055506000809054906101000a900473ffffffffffffffffffffffffffffffffffffffff16600660006101000a81548173ffffffffffffffffffffffffffffffffffffffff021916908373ffffffffffffffffffffffffffffffffffffffff1602179055506000600a81905550600160045403600b81905550600454600c816101b691906101c3565b5050505050505050610214565b8154818355818115116101ea578183600052602060002091820191016101e991906101ef565b5b505050565b61021191905b8082111561020d5760008160009055506001016101f5565b5090565b90565b6108a8806102236000396000f300606060405260043610610078576000357c0100000000000000000000000000000000000000000000000000000000900463ffffffff1680633a4c6d891461007d5780637874888a146100d7578063afdac68d14610116578063bdb337d114610139578063c850e3251461014e578063de29278914610195575b600080fd5b341561008857600080fd5b6100d56004808035906020019082018035906020019080806020026020016040519081016040528093929190818152602001838360200280828437820191505050505050919050506101e6565b005b34156100e257600080fd5b6100f860048080359060200190919050506103e1565b60405180826000191660001916815260200191505060405180910390f35b341561012157600080fd5b6101376004808035906020019091905050610405565b005b341561014457600080fd5b61014c6105bf565b005b341561015957600080fd5b6101936004808061020001906010806020026040519081016040528092919082601060200280828437820191505050505091905050610718565b005b34156101a057600080fd5b6101a8610796565b6040518082601060200280838360005b838110156101d35780820151818401526020810190506101b8565b5050505090500191505060405180910390f35b6000806000600754141580156101fe57506007548351145b801561025657506000809054906101000a900473ffffffffffffffffffffffffffffffffffffffff1673ffffffffffffffffffffffffffffffffffffffff163373ffffffffffffffffffffffffffffffffffffffff16145b80156102d05750600660009054906101000a900473ffffffffffffffffffffffffffffffffffffffff1673ffffffffffffffffffffffffffffffffffffffff166000809054906101000a900473ffffffffffffffffffffffffffffffffffffffff1673ffffffffffffffffffffffffffffffffffffffff16145b15156102db57600080fd5b436009819055506007546001600a54600b5403038115156102f857fe5b049150600090505b825181101561035957828181518110151561031757fe5b90602001906020020151600c8284026001600a54010181548110151561033957fe5b906000526020600020900181600019169055508080600101915050610300565b60006001600a54600b54030314156103785760006007819055506103dc565b600160009054906101000a900473ffffffffffffffffffffffffffffffffffffffff16600660006101000a81548173ffffffffffffffffffffffffffffffffffffffff021916908373ffffffffffffffffffffffffffffffffffffffff1602179055505b505050565b6000600c828154811015156103f257fe5b9060005260206000209001549050919050565b6000806007541415801561041b57506007548211155b80156104745750600160009054906101000a900473ffffffffffffffffffffffffffffffffffffffff1673ffffffffffffffffffffffffffffffffffffffff163373ffffffffffffffffffffffffffffffffffffffff16145b80156104ef5750600660009054906101000a900473ffffffffffffffffffffffffffffffffffffffff1673ffffffffffffffffffffffffffffffffffffffff16600160009054906101000a900473ffffffffffffffffffffffffffffffffffffffff1673ffffffffffffffffffffffffffffffffffffffff16145b15156104fa57600080fd5b436009819055506007546001600a54600b54030381151561051757fe5b0490508181026001600a540101600a8190555080600a5401600b819055506001600a54600b5403036007541115610559576001600a54600b5403036007819055505b6000809054906101000a900473ffffffffffffffffffffffffffffffffffffffff16600660006101000a81548173ffffffffffffffffffffffffffffffffffffffff021916908373ffffffffffffffffffffffffffffffffffffffff1602179055505050565b6008546009540143101515156105d457600080fd5b6000809054906101000a900473ffffffffffffffffffffffffffffffffffffffff1673ffffffffffffffffffffffffffffffffffffffff16600660009054906101000a900473ffffffffffffffffffffffffffffffffffffffff1673ffffffffffffffffffffffffffffffffffffffff1614156106b357600160009054906101000a900473ffffffffffffffffffffffffffffffffffffffff16600560006101000a81548173ffffffffffffffffffffffffffffffffffffffff021916908373ffffffffffffffffffffffffffffffffffffffff160217905550610716565b6000809054906101000a900473ffffffffffffffffffffffffffffffffffffffff16600560006101000a81548173ffffffffffffffffffffffffffffffffffffffff021916908373ffffffffffffffffffffffffffffffffffffffff1602179055505b565b600060075414801561077657506000809054906101000a900473ffffffffffffffffffffffffffffffffffffffff1673ffffffffffffffffffffffffffffffffffffffff163373ffffffffffffffffffffffffffffffffffffffff16145b151561078157600080fd5b80600d9060106107929291906107e5565b5050565b61079e61082b565b600d6010806020026040519081016040528092919082601080156107db576020028201915b815460001916815260200190600101908083116107c3575b5050505050905090565b826010810192821561081a579160200282015b828111156108195782518290600019169055916020019190600101906107f8565b5b5090506108279190610857565b5090565b610200604051908101604052806010905b600080191681526020019060019003908161083c5790505090565b61087991905b8082111561087557600081600090555060010161085d565b5090565b905600a165627a7a72305820ac042dc2966c330ed55e49699e609d9502122a8d916eccf48560fe0a28bc92640029",
  "source": "pragma solidity ^0.4.16;\n\n// \"12\", \"13\", \"121212\", \"23232323\", 123, 12, 100\n\ncontract Interactive {\n    address prover;\n    address challenger;\n    \n    bytes32 start_state;\n    bytes32 end_state;\n    \n    // Maybe number of steps should be finished\n    uint256 steps;\n    \n    address winner;\n    address next;\n    \n    uint256 size;\n    uint256 timeout;\n    uint256 clock;\n\n    uint256 idx1;\n    uint256 idx2;\n\n    bytes32[] proof;\n    bytes32[16] result;\n    \n    function Interactive(\n        address p, address c, bytes32 s, bytes32 e, uint256 _steps,\n        uint256 par, uint to) {\n        prover = p;\n        challenger = c;\n        start_state = s;\n        end_state = e;\n        steps = _steps;\n        size = par;\n        if (size > steps - 2) size = steps-2;\n        timeout = to;\n        clock = block.number;\n        next = prover;\n        idx1 = 0;\n        idx2 = steps-1;\n        proof.length = steps;\n    }\n\n    function gameOver() {\n        require(block.number >= clock + timeout);\n        if (next == prover) winner = challenger;\n        else winner = prover;\n    }\n\n    function report(bytes32[] arr) {\n        require(size != 0 && arr.length == size &&\n                msg.sender == prover && prover == next);\n        clock = block.number;\n        uint iter = (idx2-idx1-1)/size;\n        for (uint i = 0; i < arr.length; i++) {\n            proof[idx1+1+iter*i] = arr[i];\n        }\n        if (idx2-idx1-1 == 0) {\n            size = 0;\n        }\n        else next = challenger;\n    }\n\n    function getStep(uint idx) returns (bytes32) {\n        return proof[idx];\n    }\n\n    function query(uint num) {\n        require(size != 0 && num <= size &&\n                msg.sender == challenger && challenger == next);\n        clock = block.number;\n        uint iter = (idx2-idx1-1)/size;\n        idx1 = idx1+1+iter*num;\n        idx2 = idx1+iter;\n        if (size > idx2-idx1-1) size = idx2-idx1-1;\n        next = prover;\n    }\n    \n    function microStep(bytes32[16] arr) {\n        require(size == 0 && msg.sender == prover);\n        result = arr;\n    }\n    \n    function getResult() returns (bytes32[16]) {\n        return result;\n    }\n\n}\n\n",
  "sourcePath": "/home/hswick/projects/webasm-solidity/contracts/interactive.sol",
  "compiler": {
    "name": "solc",
    "version": "0.4.18+commit.9cf6e910.Emscripten.clang"
  },
  "schemaVersion": "1.0.1",
  "updatedAt": "2018-01-19T05:06:00.022Z"
}