{
  "contractName": "Judge",
  "abi": [
    {
      "constant": true,
      "inputs": [
        {
          "name": "roots",
          "type": "bytes32[10]"
        }
      ],
      "name": "calcIOHash",
      "outputs": [
        {
          "name": "",
          "type": "bytes32"
        }
      ],
      "payable": false,
      "stateMutability": "pure",
      "type": "function"
    },
    {
      "constant": false,
      "inputs": [
        {
          "name": "roots",
          "type": "bytes32[10]"
        },
        {
          "name": "pointers",
          "type": "uint256[4]"
        }
      ],
      "name": "calcStateHash",
      "outputs": [
        {
          "name": "",
          "type": "bytes32"
        }
      ],
      "payable": false,
      "stateMutability": "nonpayable",
      "type": "function"
    },
    {
      "constant": false,
      "inputs": [
        {
          "name": "state",
          "type": "bytes32"
        },
        {
          "name": "roots",
          "type": "bytes32[10]"
        },
        {
          "name": "pointers",
          "type": "uint256[4]"
        },
        {
          "name": "_proof",
          "type": "bytes32[]"
        },
        {
          "name": "loc",
          "type": "uint256"
        }
      ],
      "name": "checkFileProof",
      "outputs": [
        {
          "name": "",
          "type": "bool"
        }
      ],
      "payable": false,
      "stateMutability": "nonpayable",
      "type": "function"
    },
    {
      "constant": false,
      "inputs": [
        {
          "name": "res",
          "type": "bytes32[13]"
        },
        {
          "name": "q",
          "type": "uint256"
        },
        {
          "name": "_proof",
          "type": "bytes32[]"
        },
        {
          "name": "vm_",
          "type": "bytes32"
        },
        {
          "name": "op",
          "type": "bytes32"
        },
        {
          "name": "regs",
          "type": "uint256[4]"
        },
        {
          "name": "roots",
          "type": "bytes32[10]"
        },
        {
          "name": "pointers",
          "type": "uint256[4]"
        }
      ],
      "name": "judge",
      "outputs": [
        {
          "name": "",
          "type": "uint256"
        }
      ],
      "payable": false,
      "stateMutability": "nonpayable",
      "type": "function"
    },
    {
      "constant": false,
      "inputs": [
        {
          "name": "res",
          "type": "bytes32[13]"
        },
        {
          "name": "_proof",
          "type": "bytes32[]"
        },
        {
          "name": "roots",
          "type": "bytes32[10]"
        },
        {
          "name": "pointers",
          "type": "uint256[4]"
        }
      ],
      "name": "judgeFinality",
      "outputs": [
        {
          "name": "",
          "type": "uint256"
        }
      ],
      "payable": false,
      "stateMutability": "nonpayable",
      "type": "function"
    },
    {
      "constant": false,
      "inputs": [
        {
          "name": "hash",
          "type": "bytes32"
        },
        {
          "name": "root",
          "type": "bytes32"
        },
        {
          "name": "_proof",
          "type": "bytes32[]"
        },
        {
          "name": "loc",
          "type": "uint256"
        }
      ],
      "name": "checkProof",
      "outputs": [
        {
          "name": "",
          "type": "bool"
        }
      ],
      "payable": false,
      "stateMutability": "nonpayable",
      "type": "function"
    }
  ],
  "bytecode": "0x6060604052341561000f57600080fd5b6145448061001e6000396000f300606060405260043610610078576000357c0100000000000000000000000000000000000000000000000000000000900463ffffffff16806308b3479c1461007d578063159d526f146100e05780634c2a799f1461016f57806372819c05146102505780637c58b76a14610393578063e5ac808e14610487575b600080fd5b341561008857600080fd5b6100c2600480806101400190600a806020026040519081016040528092919082600a6020028082843782019150505050509190505061051c565b60405180826000191660001916815260200191505060405180910390f35b34156100eb57600080fd5b610151600480806101400190600a806020026040519081016040528092919082600a6020028082843782019150505050509190806080019060048060200260405190810160405280929190826004602002808284378201915050505050919050506105bf565b60405180826000191660001916815260200191505060405180910390f35b341561017a57600080fd5b61023660048080356000191690602001909190806101400190600a806020026040519081016040528092919082600a602002808284378201915050505050919080608001906004806020026040519081016040528092919082600460200280828437820191505050505091908035906020019082018035906020019080806020026020016040519081016040528093929190818152602001838360200280828437820191505050505050919080359060200190919050506105db565b604051808215151515815260200191505060405180910390f35b341561025b57600080fd5b61037d600480806101a00190600d806020026040519081016040528092919082600d60200280828437820191505050505091908035906020019091908035906020019082018035906020019080806020026020016040519081016040528093929190818152602001838360200280828437820191505050505050919080356000191690602001909190803560001916906020019091908060800190600480602002604051908101604052809291908260046020028082843782019150505050509190806101400190600a806020026040519081016040528092919082600a60200280828437820191505050505091908060800190600480602002604051908101604052809291908260046020028082843782019150505050509190505061063c565b6040518082815260200191505060405180910390f35b341561039e57600080fd5b610471600480806101a00190600d806020026040519081016040528092919082600d602002808284378201915050505050919080359060200190820180359060200190808060200260200160405190810160405280939291908181526020018383602002808284378201915050505050509190806101400190600a806020026040519081016040528092919082600a6020028082843782019150505050509190806080019060048060200260405190810160405280929190826004602002808284378201915050505050919050506107fe565b6040518082815260200191505060405180910390f35b341561049257600080fd5b61050260048080356000191690602001909190803560001916906020019091908035906020019082018035906020019080806020026020016040519081016040528093929190818152602001838360200280828437820191505050505050919080359060200190919050506108b8565b604051808215151515815260200191505060405180910390f35b6000816000600a8110151561052d57fe5b6020020151826007600a8110151561054157fe5b6020020151836008600a8110151561055557fe5b6020020151846009600a8110151561056957fe5b602002015160405180856000191660001916815260200184600019166000191681526020018360001916600019168152602001826000191660001916815260200194505050505060405180910390209050919050565b60006105cb8383610905565b6105d3610ac5565b905092915050565b60006105e78585610905565b82601590805190602001906105fd929190614478565b506106078561051c565b600019168660001916148015610631575061062182610dba565b6000191660056009015460001916145b905095945050505050565b6000610698868686600060048110151561065257fe5b602002015187600160048110151561066657fe5b602002015188600260048110151561067a57fe5b602002015189600360048110151561068e57fe5b6020020151610f30565b6106a28383610905565b6000881415610704576106b3610ac5565b600f60000181600019169055506106c8610f7c565b601781600019169055508888600d811015156106e057fe5b602002015160001916600f60000154600019161415156106ff57600080fd5b610741565b8888600d8110151561071257fe5b602002015160178160001916905550610729610f7c565b600019166017546000191614151561074057600080fd5b5b87601881905550866015908051906020019061075e929190614478565b50610767610fef565b600b88141561078157600f60000154601781600019169055505b8860018901600d8110151561079257fe5b602002015160001916601754600019161415156107ae57600080fd5b33601960006101000a81548173ffffffffffffffffffffffffffffffffffffffff021916908373ffffffffffffffffffffffffffffffffffffffff16021790555087905098975050505050505050565b600061080a8383610905565b610812610ac5565b600f6000018160001916905550610827610f7c565b60178160001916905550846000600d8110151561084057fe5b602002015160001916600f600001546000191614151561085f57600080fd5b6000601881905550836015908051906020019061087d929190614478565b50610886610fef565b6b040006060001000106000000600102600f60010154600019161415156108ac57600080fd5b60019050949350505050565b600082601590805190602001906108d0929190614478565b506108da826110f9565b85600190041480156108fb57506108f082610dba565b600019168460001916145b9050949350505050565b816000600a8110151561091457fe5b602002015160056000018160001916905550816001600a8110151561093557fe5b602002015160056001018160001916905550816002600a8110151561095657fe5b602002015160056002018160001916905550816003600a8110151561097757fe5b602002015160056006018160001916905550816004600a8110151561099857fe5b602002015160056003018160001916905550816005600a811015156109b957fe5b602002015160056004018160001916905550816006600a811015156109da57fe5b6020020151600580018160001916905550816007600a811015156109fa57fe5b602002015160056007018160001916905550816008600a81101515610a1b57fe5b602002015160056008018160001916905550816009600a81101515610a3c57fe5b602002015160056009018160001916905550806000600481101515610a5d57fe5b6020020151600160000181905550806001600481101515610a7a57fe5b60200201516001800181905550806002600481101515610a9657fe5b6020020151600160020181905550806003600481101515610ab357fe5b60200201516001600301819055505050565b6000610acf6144cb565b600e604051805910610ade5750595b90808252806020026020018201604052509050600560000154816000815181101515610b0657fe5b906020019060200201906000191690816000191681525050600560020154816001815181101515610b3357fe5b906020019060200201906000191690816000191681525050600560010154816002815181101515610b6057fe5b906020019060200201906000191690816000191681525050600560030154816003815181101515610b8d57fe5b906020019060200201906000191690816000191681525050600560060154816004815181101515610bba57fe5b906020019060200201906000191690816000191681525050600560040154816005815181101515610be757fe5b9060200190602002019060001916908160001916815250506005800154816006815181101515610c1357fe5b906020019060200201906000191690816000191681525050600560070154816007815181101515610c4057fe5b906020019060200201906000191690816000191681525050600560080154816008815181101515610c6d57fe5b906020019060200201906000191690816000191681525050600560090154816009815181101515610c9a57fe5b90602001906020020190600019169081600019168152505060016000015460010281600a815181101515610cca57fe5b906020019060200201906000191690816000191681525050600180015460010281600b815181101515610cf957fe5b90602001906020020190600019169081600019168152505060016002015460010281600c815181101515610d2957fe5b90602001906020020190600019169081600019168152505060016003015460010281600d815181101515610d5957fe5b9060200190602002019060001916908160001916815250508060405180828051906020019060200280838360005b83811015610da2578082015181840152602081019050610d87565b50505050905001915050604051809103902091505090565b6000806000600260158054905010151515610dd457600080fd5b60156000815481101515610de457fe5b90600052602060002090015460156001815481101515610e0057fe5b90600052602060002090015460405180836000191660001916815260200182600019166000191681526020019250505060405180910390209150600290505b601580549050811015610f1757600284811515610e5857fe5b0493506000600285811515610e6957fe5b061415610ebf5781601582815481101515610e8057fe5b90600052602060002090015460405180836000191660001916815260200182600019166000191681526020019250505060405180910390209150610f0a565b601581815481101515610ece57fe5b90600052602060002090015482604051808360001916600019168152602001826000191660001916815260200192505050604051809103902091505b8080600101915050610e3f565b600284101515610f2657600080fd5b8192505050919050565b85600f600001816000191690555084600f600101816000191690555083600f6002018190555082600f6003018190555081600f6004018190555080600f60050181905550505050505050565b6000600f60000154600f60010154600f60020154600f60030154600f60040154600f60050154604051808760001916600019168152602001866000191660001916815260200185815260200184815260200183815260200182815260200196505050505050506040518091039020905090565b6000601854141561100357611002611174565b5b600160185414156110175761101661118e565b5b6002601854141561102b5761102a6111c6565b5b6003601854141561103f5761103e6111e2565b5b60046018541415611053576110526111fe565b5b600560185414156110675761106661121a565b5b6006601854141561107b5761107a611266565b5b6007601854141561108f5761108e6112ce565b5b600860185414156110a3576110a2611336565b5b600960185414156110b7576110b661135a565b5b600a60185414156110cb576110ca61137e565b5b600b60185414156110df576110de6113a2565b5b600c6001601854018115156110f057fe5b06601881905550565b600060026015805490501015151561111057600080fd5b600060028381151561111e57fe5b06141561114c576015600081548110151561113557fe5b90600052602060002090015460019004905061116f565b6015600181548110151561115c57fe5b9060005260206000209001546001900490505b919050565b61118c6111876111826113d0565b61141b565b611491565b565b61119860006114c9565b6111a260006114ef565b6111ac600061150e565b6111c46111bf6111ba61152d565b611559565b611580565b565b6111e06111db6111d6600061159f565b6115c8565b6114c9565b565b6111fc6111f76111f2600161159f565b6115c8565b6114ef565b565b61121861121361120e600261159f565b6115c8565b61150e565b565b61125461124f61122a600361159f565b6112326117d8565b61123a611804565b611242611830565b61124a61185c565b611888565b6114c9565b61125e600361159f565b600081905550565b6000806000611275600461159f565b9250611281600561159f565b91506001831415611297576112946117d8565b90505b60028314156112ab576112a8611804565b90505b60038314156112bf576112bc611830565b90505b6112c982826120fb565b505050565b60008060006112dd600661159f565b92506112e9600761159f565b915060018314156112ff576112fc6117d8565b90505b600283141561131357611310611804565b90505b600383141561132757611324611830565b90505b61133182826120fb565b505050565b611358611353611346600b61159f565b61134e6113d0565b61233f565b61241d565b565b61137c61137761136a600961159f565b611372612451565b61233f565b61249b565b565b6113a061139b61138e600861159f565b6113966124ce565b61233f565b612519565b565b60016113ae600c61159f565b14156113ce576113cd6113bf6117d8565b6113c761254d565b01612598565b5b565b6000601754600019166113e1610f7c565b600019161480156114055750600f60000154600019166113ff610ac5565b60001916145b151561141057600080fd5b600160000154905090565b60006017546000191661142c610f7c565b600019161480156114505750600f600001546000191661144a610ac5565b60001916145b151561145b57600080fd5b6005600001546000191661146e83610dba565b6000191614151561147e57600080fd5b611487826110f9565b6001029050919050565b80600f60010181600019169055506114a7610ac5565b600f60000181600019169055506114bc610f7c565b6017816000191690555050565b80600f60020181905550806000819055506114e2610f7c565b6017816000191690555050565b80600f60030181905550611501610f7c565b6017816000191690555050565b80600f60040181905550611520610f7c565b6017816000191690555050565b60006017546000191661153e610f7c565b6000191614151561154e57600080fd5b600f60010154905090565b60006d0100000000000000000000000000826001900481151561157857fe5b049050919050565b80600f60050181905550611592610f7c565b6017816000191690555050565b600060ff8260080260020a6115b261152d565b600190048115156115bf57fe5b04169050919050565b60008060008314156115dd57600091506117d2565b60018314156115f5576115ee61185c565b91506117d2565b60028314156116105760016116086113d0565b0191506117d2565b600383141561162857611621612451565b91506117d2565b60048314156116405761163961254d565b91506117d2565b601483141561166857611661611654611804565b61165c6117d8565b6125cc565b91506117d2565b60158314156116905761168961167c611804565b6116846117d8565b612669565b91506117d2565b61169983612749565b905060058314156116b4576116ad816128d2565b91506117d2565b60068314156116cd576116c681612945565b91506117d2565b60078314156116e6576116df81612945565b91506117d2565b60088314156116ff576116f881612945565b91506117d2565b60098314156117185761171181612945565b91506117d2565b600e8314156117315761172a816129b8565b91506117d2565b600f83141561174a5761174381612a2b565b91506117d2565b60108314156117635761175c81612a9e565b91506117d2565b601183141561177c5761177581612a2b565b91506117d2565b60128314156117955761178e81612b11565b91506117d2565b60138314156117ae576117a781612b83565b91506117d2565b60168314156117c7576117c081612945565b91506117d2565b600015156117d157fe5b5b50919050565b6000601754600019166117e9610f7c565b600019161415156117f957600080fd5b600f60020154905090565b600060175460001916611815610f7c565b6000191614151561182557600080fd5b600f60030154905090565b600060175460001916611841610f7c565b6000191614151561185157600080fd5b600f60040154905090565b60006017546000191661186d610f7c565b6000191614151561187d57600080fd5b600f60050154905090565b6000806118936144df565b86915060008814156118a7578692506120f0565b60018814806118b65750600688145b156118c057600080fd5b60c080891614156118f7576118d58686612bf6565b90506118f0816008868a018115156118e957fe5b068a612c4d565b915061208d565b6002881415611919578587101561191057869150611914565b8591505b61208c565b600388141561193d5760008614151561193457869150611938565b8491505b61208b565b600488141561195f57838710156119545786611956565b835b8601915061208a565b600788141561197f57858414151561197657600080fd5b60009150612089565b604588148061198e5750605088145b156119af5760008714156119a557600191506119aa565b600091505b612088565b60468814806119be5750605188145b156119de57858714156119d457600191506119d9565b600091505b612087565b60478814806119ed5750605288145b15611a0e578587141515611a045760019150611a09565b600091505b612086565b6048881415611a38578560030b8760030b1215611a2e5760019150611a33565b600091505b612085565b6049881415611a68578563ffffffff168763ffffffff161015611a5e5760019150611a63565b600091505b612084565b604a881415611a92578560030b8760030b1315611a885760019150611a8d565b600091505b612083565b604b881415611ac2578563ffffffff168763ffffffff161115611ab85760019150611abd565b600091505b612082565b604c881415611aed578560030b8760030b131515611ae35760019150611ae8565b600091505b612081565b604d881415611b1e578563ffffffff168763ffffffff16111515611b145760019150611b19565b600091505b612080565b604e881415611b49578560030b8760030b121515611b3f5760019150611b44565b600091505b61207f565b604f881415611b7a578563ffffffff168763ffffffff16101515611b705760019150611b75565b600091505b61207e565b6053881415611ba4578560070b8760070b1215611b9a5760019150611b9f565b600091505b61207d565b6054881415611bdc578567ffffffffffffffff168767ffffffffffffffff161015611bd25760019150611bd7565b600091505b61207c565b6055881415611c06578560070b8760070b1315611bfc5760019150611c01565b600091505b61207b565b6056881415611c3e578567ffffffffffffffff168767ffffffffffffffff161115611c345760019150611c39565b600091505b61207a565b6057881415611c69578560070b8760070b131515611c5f5760019150611c64565b600091505b612079565b6058881415611ca2578567ffffffffffffffff168767ffffffffffffffff16111515611c985760019150611c9d565b600091505b612078565b6059881415611ccd578560070b8760070b121515611cc35760019150611cc8565b600091505b612077565b605a881415611d06578567ffffffffffffffff168767ffffffffffffffff16101515611cfc5760019150611d01565b600091505b612076565b6067881415611d2257611d1887612c88565b60ff169150612075565b6068881415611d3e57611d3487612d84565b60ff169150612074565b6069881415611d5a57611d5087612e74565b60ff169150612073565b6079881415611d7657611d6c87612f18565b60ff169150612072565b607a881415611d9257611d8887613082565b60ff169150612071565b607b881415611dae57611da4876131cf565b60ff169150612070565b606a881480611dbd5750607c88145b15611dcc57858701915061206f565b606b881480611ddb5750607d88145b15611dea57858703915061206e565b606c881480611df95750607e88145b15611e0857858702915061206d565b606d881415611e2d578560030b8760030b811515611e2257fe5b0560030b915061206c565b607f881415611e52578560070b8760070b811515611e4757fe5b0560070b915061206b565b606e881480611e615750608088145b15611e79578587811515611e7157fe5b04915061206a565b606f881415611e9e578560030b8760030b811515611e9357fe5b0760030b9150612069565b6081881415611ec3578560070b8760070b811515611eb857fe5b0760070b9150612068565b6070881480611ed25750608288145b15611eea578587811515611ee257fe5b069150612067565b6071881480611ef95750608388145b15611f08578587169150612066565b6072881480611f175750608488145b15611f26578587179150612065565b6073881480611f355750608588145b15611f44578587189150612064565b6074881480611f535750608688145b15611f65578560020a87029150612063565b6075881480611f745750608788145b15611f8f578560020a87811515611f8757fe5b049150612062565b6076881480611f9e5750608888145b15611fb9578560020a87811515611fb157fe5b049150612061565b6077881415611fe15764010000000087811515611fd257fe5b048660020a8802179150612060565b60788814156120095764010000000087028660020a8881151561200057fe5b0417915061205f565b608988141561203557680100000000000000008781151561202657fe5b048660020a880217915061205e565b608a88141561205d576801000000000000000087028660020a8881151561205857fe5b041791505b5b5b5b5b5b5b5b5b5b5b5b5b5b5b5b5b5b5b5b5b5b5b5b5b5b5b5b5b5b5b5b5b5b5b5b5b5b5b5b5b5b5b5b5b5b5b5b5b6062881015801561209f575060788811155b156120bc57640100000000828115156120b457fe5b0691506120ec565b607c88101580156120ce5750608a8811155b156120eb5768010000000000000000828115156120e757fe5b0691505b5b8192505b505095945050505050565b60008083141561210a5761233a565b600b8314156121315761212c61211e6117d8565b612126611804565b846132d2565b612339565b600c8314156121505761214b6121456117d8565b836133ba565b612338565b600d831415612177576121726121646117d8565b61216c611804565b84613502565b612337565b601083141561218e576121898261363d565b612336565b60118314156121a5576121a082613656565b612335565b60128314156121bc576121b78261366f565b612334565b60138314156121d3576121ce82613688565b612333565b60148314156121ea576121e5826136a1565b612332565b6015831415612201576121fc826136b9565b612331565b61220a836136d2565b9050608060c08416141561222857612223818385613871565b612330565b60c080841614156122435761223e8183856138e2565b61232f565b600283141561225b576122568183613953565b61232e565b60038314156122735761226e8183613953565b61232d565b600483141561228b576122868183613953565b61232c565b60068314156122a35761229e81836139ff565b61232b565b60088314156122bb576122b68183613aab565b61232a565b60098314156122d3576122ce8183613953565b612329565b600a8314156122eb576122e68183613b57565b612328565b600e831415612303576122fe8183613c03565b612327565b600f83141561231b576123168183613caf565b612326565b6000151561232557fe5b5b5b5b5b5b5b5b5b5b5b5b5b5b5b5b5b5b5b5b5b5b505050565b60008083141561235a576123516117d8565b82039050612417565b60018314156123725761236b6117d8565b9050612417565b600283141561238a57612383611804565b9050612417565b60038314156123a25761239b611830565b9050612417565b60048314156123b657600182019050612417565b60058314156123ca57600182039050612417565b60068314156123db57819050612417565b60078314156123ef57600282039050612417565b600883141561240c5761240061185c565b60018303039050612417565b6000151561241657fe5b5b92915050565b8060016000018190555061242f610ac5565b600f6000018160001916905550612444610f7c565b6017816000191690555050565b600060175460001916612462610f7c565b600019161480156124865750600f6000015460001916612480610ac5565b60001916145b151561249157600080fd5b6001800154905090565b8060018001819055506124ac610ac5565b600f60000181600019169055506124c1610f7c565b6017816000191690555050565b6000601754600019166124df610f7c565b600019161480156125035750600f60000154600019166124fd610ac5565b60001916145b151561250e57600080fd5b600160020154905090565b8060016002018190555061252b610ac5565b600f6000018160001916905550612540610f7c565b6017816000191690555050565b60006017546000191661255e610f7c565b600019161480156125825750600f600001546000191661257c610ac5565b60001916145b151561258d57600080fd5b600160030154905090565b806001600301819055506125aa610ac5565b600f60000181600019169055506125bf610f7c565b6017816000191690555050565b6000601754600019166125dd610f7c565b600019161480156126015750600f60000154600019166125fb610ac5565b60001916145b151561260c57600080fd5b6005600801546000191661261f84610dba565b6000191614151561262f57600080fd5b61263883613d59565b6001026000191661264883613dd4565b6000191614151561265857600080fd5b61266182613d59565b905092915050565b60008060006017546000191661267d610f7c565b600019161480156126a15750600f600001546000191661269b610ac5565b60001916145b15156126ac57600080fd5b600560090154600019166126bf86610dba565b600019161415156126cf57600080fd5b6126d885613d59565b600102600019166126f46020868115156126ee57fe5b04613dd4565b6000191614151561270457600080fd5b61271960208581151561271357fe5b04613d59565b915060208481151561272757fe5b06905060ff6008820260020a8381151561273d57fe5b04169250505092915050565b600060048211151561275757fe5b600582141561276f576127686117d8565b90506128cd565b600682141561278a576001612782612451565b0390506128cd565b60078214156127a557600261279d612451565b0390506128cd565b60088214156127c6576127b66117d8565b6127be612451565b0390506128cd565b60098214156127e7576127d7611804565b6127df612451565b0390506128cd565b600e8214156128025760016127fa6124ce565b0390506128cd565b600f82141561282f57600861281561185c565b61281d6117d8565b0181151561282757fe5b0490506128cd565b6010821415612847576128406117d8565b90506128cd565b6011821415612877576001600861285c61185c565b6128646117d8565b0181151561286e57fe5b040190506128cd565b601282141561288f576128886117d8565b90506128cd565b60138214156128a7576128a06117d8565b90506128cd565b60168214156128c25760036128ba612451565b0390506128cd565b600015156128cc57fe5b5b919050565b6000601754600019166128e3610f7c565b600019161480156129075750600f6000015460001916612901610ac5565b60001916145b151561291257600080fd5b6005600301546000191661292583610dba565b6000191614151561293557600080fd5b61293e826110f9565b9050919050565b600060175460001916612956610f7c565b6000191614801561297a5750600f6000015460001916612974610ac5565b60001916145b151561298557600080fd5b6005600101546000191661299883610dba565b600019161415156129a857600080fd5b6129b1826110f9565b9050919050565b6000601754600019166129c9610f7c565b600019161480156129ed5750600f60000154600019166129e7610ac5565b60001916145b15156129f857600080fd5b60056006015460001916612a0b83610dba565b60001916141515612a1b57600080fd5b612a24826110f9565b9050919050565b600060175460001916612a3c610f7c565b60001916148015612a605750600f6000015460001916612a5a610ac5565b60001916145b1515612a6b57600080fd5b60056002015460001916612a7e83610dba565b60001916141515612a8e57600080fd5b612a97826110f9565b9050919050565b600060175460001916612aaf610f7c565b60001916148015612ad35750600f6000015460001916612acd610ac5565b60001916145b1515612ade57600080fd5b60056004015460001916612af183610dba565b60001916141515612b0157600080fd5b612b0a826110f9565b9050919050565b600060175460001916612b22610f7c565b60001916148015612b465750600f6000015460001916612b40610ac5565b60001916145b1515612b5157600080fd5b600580015460001916612b6383610dba565b60001916141515612b7357600080fd5b612b7c826110f9565b9050919050565b600060175460001916612b94610f7c565b60001916148015612bb85750600f6000015460001916612bb2610ac5565b60001916145b1515612bc357600080fd5b60056007015460001916612bd683610dba565b60001916141515612be657600080fd5b612bef826110f9565b9050919050565b612bfe6144df565b612c066144df565b6010604051805910612c155750595b90808252806020026020018201604052509050612c36816000600887613f4a565b612c438160088086613f4a565b8091505092915050565b6000612c7f84846003601086811515612c6257fe5b04166007600287811515612c7257fe5b0416600180881614613fa3565b90509392505050565b6000806000808463ffffffff161415612ca45760209250612d7d565b83915060009050600063ffff0000831663ffffffff161415612cd75760108101905060108263ffffffff169060020a0291505b600063ff000000831663ffffffff161415612d035760088101905060088263ffffffff169060020a0291505b600063f0000000831663ffffffff161415612d2f5760048101905060048263ffffffff169060020a0291505b600063c0000000831663ffffffff161415612d5b5760028101905060028263ffffffff169060020a0291505b60006308000000831663ffffffff161415612d795780806001019150505b8092505b5050919050565b6000806000808463ffffffff161415612da05760209250612e6d565b83915060009050600061ffff831663ffffffff161415612dd25760108101905060108263ffffffff169060020a900491505b600060ff831663ffffffff161415612dfc5760088101905060088263ffffffff169060020a900491505b6000600f831663ffffffff161415612e265760048101905060048263ffffffff169060020a900491505b60006003831663ffffffff161415612e505760028101905060028263ffffffff169060020a900491505b60006001831663ffffffff161415612e69576001810190505b8092505b5050919050565b600080829050635555555560018263ffffffff169060020a90041663555555558216019050633333333360028263ffffffff169060020a90041663333333338216019050630f0f0f0f60048263ffffffff169060020a900416630f0f0f0f821601905062ff00ff60088263ffffffff169060020a90041662ff00ff821601905061ffff60108263ffffffff169060020a90041661ffff821601905080915050919050565b6000806000808467ffffffffffffffff161415612f38576040925061307b565b83915060009050600067ffffffff00000000831667ffffffffffffffff161415612f775760208101905060208267ffffffffffffffff169060020a0291505b600067ffff000000000000831667ffffffffffffffff161415612fab5760108101905060108267ffffffffffffffff169050505b600067ff00000000000000831667ffffffffffffffff161415612fe35760088101905060088267ffffffffffffffff169060020a0291505b600067f000000000000000831667ffffffffffffffff16141561301b5760048101905060048267ffffffffffffffff169060020a0291505b600067c000000000000000831667ffffffffffffffff1614156130535760028101905060028267ffffffffffffffff169060020a0291505b6000678000000000000000831667ffffffffffffffff161415613077576001810190505b8092505b5050919050565b6000806000808467ffffffffffffffff1614156130a257604092506131c8565b83915060009050600063ffffffff831667ffffffffffffffff1614156130de5760208101905060208267ffffffffffffffff169060020a900491505b600061ffff831667ffffffffffffffff1614156131115760108101905060108267ffffffffffffffff169060020a900491505b600060ff831667ffffffffffffffff1614156131435760088101905060088267ffffffffffffffff169060020a900491505b6000600f831667ffffffffffffffff1614156131755760048101905060048267ffffffffffffffff169060020a900491505b60006003831667ffffffffffffffff1614156131a75760028101905060028267ffffffffffffffff169060020a900491505b60006001831667ffffffffffffffff1614156131c4576001810190505b8092505b5050919050565b60008082905067555555555555555560018267ffffffffffffffff169060020a900416675555555555555555821601905067333333333333333360028267ffffffffffffffff169060020a9004166733333333333333338216019050670f0f0f0f0f0f0f0f60048267ffffffffffffffff169060020a900416670f0f0f0f0f0f0f0f821601905066ff00ff00ff00ff60088267ffffffffffffffff169060020a90041666ff00ff00ff00ff821601905065ffff0000ffff60108267ffffffffffffffff169060020a90041665ffff0000ffff821601905063ffffffff60208267ffffffffffffffff169060020a90041663ffffffff821601905080915050919050565b601754600019166132e1610f7c565b600019161480156133055750600f60000154600019166132ff610ac5565b60001916145b151561331057600080fd5b6005600801546000191661332384610dba565b6000191614151561333357600080fd5b61333c83613d59565b6001026000191661334c83613dd4565b6000191614151561335c57600080fd5b613366828261408f565b6133788361337385613d59565b614111565b61338183610dba565b60056008018160001916905550613396610ac5565b600f60000181600019169055506133ab610f7c565b60178160001916905550505050565b6000601754600019166133cb610f7c565b600019161480156133ef5750600f60000154600019166133e9610ac5565b60001916145b15156133fa57600080fd5b6005600901546000191661340d84610dba565b6000191614151561341d57600080fd5b60208281151561342957fe5b04915060006001026000600102604051808360001916600019168152602001826000191660001916815260200192505050604051809103902090505b60018211156134b25760028281151561347a57fe5b049150808160405180836000191660001916815260200182600019166000191681526020019250505060405180910390209050613465565b6134c0838260019004614111565b6134c983610dba565b600560090181600019169055506134de610ac5565b600f60000181600019169055506134f3610f7c565b60178160001916905550505050565b600080600060175460001916613516610f7c565b6000191614801561353a5750600f6000015460001916613534610ac5565b60001916145b151561354557600080fd5b6005600901546000191661355887610dba565b6000191614151561356857600080fd5b61357186613d59565b6001026000191661358d60208781151561358757fe5b04613dd4565b6000191614151561359d57600080fd5b6135b26020868115156135ac57fe5b04613d59565b92506020858115156135c057fe5b0691506135ce838386614193565b90506135e66020868115156135df57fe5b048261408f565b6135f8866135f388613d59565b614111565b61360186610dba565b60056009018160001916905550613616610ac5565b600f600001816000191690555061362b610f7c565b60178160001916905550505050505050565b61364681614217565b6005600101816000191690555050565b61365f81614217565b6005600601816000191690555050565b61367881614217565b6005600301816000191690555050565b61369181614217565b6005600401816000191690555050565b6136aa81614217565b60058001816000191690555050565b6136c281614217565b6005600201816000191690555050565b600080821115156136df57fe5b6002821415613700576136f06117d8565b6136f8612451565b03905061386c565b600382141561371857613711612451565b905061386c565b600482141561373357600161372b612451565b03905061386c565b600582141561375457613744611804565b61374c6117d8565b01905061386c565b600682141561376c576137656124ce565b905061386c565b60088214156137845761377d6117d8565b905061386c565b600982141561379f576002613797612451565b03905061386c565b600a8214156137b7576137b06117d8565b905061386c565b600c8214156137cf576137c86117d8565b905061386c565b600e8214156137e7576137e061185c565b905061386c565b600f8214156137ff576137f861185c565b905061386c565b608060c08316141561382f57600861381561185c565b61381d6117d8565b0181151561382757fe5b04905061386c565b60c08083161415613861576001600861384661185c565b61384e6117d8565b0181151561385857fe5b0401905061386c565b6000151561386b57fe5b5b919050565b600061387b6144df565b60008061388787612a2b565b9350613894846000612bf6565b92506138be8360086138a461185c565b6138ac6117d8565b018115156138b657fe5b068888614276565b6138c78361429b565b80925081935050506138d987836142c0565b50505050505050565b60006138ec6144df565b6000806138f887612a2b565b9350613905600085612bf6565b925061392f83600861391561185c565b61391d6117d8565b0181151561392757fe5b068888614276565b6139388361429b565b809350819250505061394a87836142c0565b50505050505050565b60175460001916613962610f7c565b600019161480156139865750600f6000015460001916613980610ac5565b60001916145b151561399157600080fd5b600560010154600019166139a483610dba565b600019161415156139b457600080fd5b6139be8282614111565b6139c782610dba565b600560010181600019169055506139dc610ac5565b600f60000181600019169055506139f1610f7c565b601781600019169055505050565b60175460001916613a0e610f7c565b60001916148015613a325750600f6000015460001916613a2c610ac5565b60001916145b1515613a3d57600080fd5b60056006015460001916613a5083610dba565b60001916141515613a6057600080fd5b613a6a8282614111565b613a7382610dba565b60056006018160001916905550613a88610ac5565b600f6000018160001916905550613a9d610f7c565b601781600019169055505050565b60175460001916613aba610f7c565b60001916148015613ade5750600f6000015460001916613ad8610ac5565b60001916145b1515613ae957600080fd5b60056003015460001916613afc83610dba565b60001916141515613b0c57600080fd5b613b168282614111565b613b1f82610dba565b60056003018160001916905550613b34610ac5565b600f6000018160001916905550613b49610f7c565b601781600019169055505050565b60175460001916613b66610f7c565b60001916148015613b8a5750600f6000015460001916613b84610ac5565b60001916145b1515613b9557600080fd5b60056007015460001916613ba883610dba565b60001916141515613bb857600080fd5b613bc28282614111565b613bcb82610dba565b60056007018160001916905550613be0610ac5565b600f6000018160001916905550613bf5610f7c565b601781600019169055505050565b60175460001916613c12610f7c565b60001916148015613c365750600f6000015460001916613c30610ac5565b60001916145b1515613c4157600080fd5b60056004015460001916613c5483610dba565b60001916141515613c6457600080fd5b613c6e8282614111565b613c7782610dba565b60056004018160001916905550613c8c610ac5565b600f6000018160001916905550613ca1610f7c565b601781600019169055505050565b60175460001916613cbe610f7c565b60001916148015613ce25750600f6000015460001916613cdc610ac5565b60001916145b1515613ced57600080fd5b600580015460001916613cff83610dba565b60001916141515613d0f57600080fd5b613d198282614111565b613d2282610dba565b600580018160001916905550613d36610ac5565b600f6000018160001916905550613d4b610f7c565b601781600019169055505050565b6000600260168054905010151515613d7057600080fd5b6000600283811515613d7e57fe5b061415613dac5760166000815481101515613d9557fe5b906000526020600020900154600190049050613dcf565b60166001815481101515613dbc57fe5b9060005260206000209001546001900490505b919050565b6000806000600260168054905010151515613dee57600080fd5b60166000815481101515613dfe57fe5b90600052602060002090015460166001815481101515613e1a57fe5b90600052602060002090015460405180836000191660001916815260200182600019166000191681526020019250505060405180910390209150600290505b601680549050811015613f3157600284811515613e7257fe5b0493506000600285811515613e8357fe5b061415613ed95781601682815481101515613e9a57fe5b90600052602060002090015460405180836000191660001916815260200182600019166000191681526020019250505060405180910390209150613f24565b601681815481101515613ee857fe5b90600052602060002090015482604051808360001916600019168152602001826000191660001916815260200192505050604051809103902091505b8080600101915050613e59565b600284101515613f4057600080fd5b8192505050919050565b60008090505b82811015613f9c578185828601815181101515613f6957fe5b9060200190602002019060ff16908160ff168152505061010082811515613f8c57fe5b0491508080600101915050613f50565b5050505050565b6000806000841415613fc957613fc28787613fbd8861436c565b6143bb565b9150614085565b600285108015613fe65750600085148015613fe45750600484145b155b1515613ff157600080fd5b613ffc8787866143bb565b90508215614048576001846008020360020a8181151561401857fe5b048460080260020a7fffffffffffffffffffffffffffffffffffffffffffffffffffffffffffffffff0202811790505b6000851415614069576401000000008181151561406157fe5b069050614081565b680100000000000000008181151561407d57fe5b0690505b8091505b5095945050505050565b6002601680549050101515156140a457600080fd5b60006002838115156140b257fe5b0614156140e55780600102601660008154811015156140cd57fe5b9060005260206000209001816000191690555061410d565b80600102601660018154811015156140f957fe5b906000526020600020900181600019169055505b5050565b60026015805490501015151561412657600080fd5b600060028381151561413457fe5b06141561416757806001026015600081548110151561414f57fe5b9060005260206000209001816000191690555061418f565b806001026015600181548110151561417b57fe5b906000526020600020900181600019169055505b5050565b6000806001840160080260020a7fffffffffffffffffffffffffffffffffffffffffffffffffffffffffffffffff8115156141ca57fe5b048460200360080260020a7fffffffffffffffffffffffffffffffffffffffffffffffffffffffffffffffff021790508260ff168460200360080260020a02818616179150509392505050565b6000806000806001029150600090505b8381101561426c578182604051808360001916600019168152602001826000191660001916815260200192505050604051809103902091508080600101915050614227565b8192505050919050565b614295848484600360088681151561428a57fe5b04166007861661441a565b50505050565b6000806142ab83600060086143bb565b91506142b9836008806143bb565b9050915091565b601754600019166142cf610f7c565b600019161480156142f35750600f60000154600019166142ed610ac5565b60001916145b15156142fe57600080fd5b6005600201546000191661431183610dba565b6000191614151561432157600080fd5b61432b8282614111565b61433482610dba565b60056002018160001916905550614349610ac5565b600f600001816000191690555061435e610f7c565b601781600019169055505050565b60008082141561437f57600490506143b6565b600182141561439157600890506143b6565b60028214156143a357600490506143b6565b60038214156143b557600890506143b6565b5b919050565b6000806000806000925060019150600090505b8481101561440d5781878288018151811015156143e757fe5b9060200190602002015160ff1602830192506101008202915080806001019150506143ce565b8293505050509392505050565b600081141561443c5761443785856144318561436c565b86613f4a565b614471565b60028210801561445957506000821480156144575750600481145b155b151561446457600080fd5b61447085858386613f4a565b5b5050505050565b8280548282559060005260206000209081019282156144ba579160200282015b828111156144b9578251829060001916905591602001919060010190614498565b5b5090506144c791906144f3565b5090565b602060405190810160405280600081525090565b602060405190810160405280600081525090565b61451591905b808211156145115760008160009055506001016144f9565b5090565b905600a165627a7a723058205bcf44aef7d8ffa83d148b221e0a911453945a68dc2eb48f151753d5265f6f7d0029",
  "source": "pragma solidity ^0.4.15;\n\nimport \"./common-onchain.sol\";\n\ncontract Judge is CommonOnchain {\n\n    address winner;\n\n    function judge(bytes32[13] res, uint q,\n                        bytes32[] _proof,\n                        bytes32 vm_, bytes32 op, uint[4] regs,\n                        bytes32[10] roots, uint[4] pointers) public returns (uint) {\n        setMachine(vm_, op, regs[0], regs[1], regs[2], regs[3]);\n        setVM2(roots, pointers);\n        // Special initial state\n        if (q == 0) {\n            m.vm = hashVM();\n            state = hashMachine();\n            require(m.vm == res[q]);\n        }\n        else {\n           state = res[q];\n           require(state == hashMachine());\n        }\n        phase = q;\n        proof = _proof;\n        performPhase();\n        // Special final state\n        if (q == 11) state = m.vm;\n        require (state == res[q+1]);\n        winner = msg.sender;\n        return q;\n        // return (q, state, debug);\n    }\n\n    function judgeFinality(bytes32[13] res, bytes32[] _proof,\n                        bytes32[10] roots, uint[4] pointers) public returns (uint) {\n        setVM2(roots, pointers);\n        m.vm = hashVM();\n        state = hashMachine();\n        require(m.vm == res[0]);\n        phase = 0;\n        proof = _proof;\n        performPhase();\n        require(m.op == 0x0000000000000000000000000000000000000000040006060001000106000000);\n        return 1;\n    }\n\n    function checkFileProof(bytes32 state, bytes32[10] roots, uint[4] pointers, bytes32[] _proof, uint loc) public returns (bool) {\n        setVM2(roots, pointers);\n        proof = _proof;\n        return state == calcIOHash(roots) && vm_r.input_data == getRoot(loc);\n    }\n\n    function checkProof(bytes32 hash, bytes32 root, bytes32[] _proof, uint loc) public returns (bool) {\n        proof = _proof;\n        return uint(hash) == getLeaf(loc) && root == getRoot(loc);\n    }\n\n    function calcStateHash(bytes32[10] roots, uint[4] pointers) public returns (bytes32) {\n        setVM2(roots, pointers);\n        return hashVM();\n    }\n\n    function calcIOHash(bytes32[10] roots) public pure returns (bytes32) {\n        return keccak256(roots[0], roots[7], roots[8], roots[9]);\n    }\n\n}\n",
  "sourcePath": "/home/hswick/projects/webasm-solidity/contracts/judge.sol",
  "compiler": {
    "name": "solc",
    "version": "0.4.18+commit.9cf6e910.Emscripten.clang"
  },
  "schemaVersion": "1.0.1",
  "updatedAt": "2018-01-19T04:57:05.420Z"
}