{
  "contractName": "TestUser",
  "abi": [
    {
      "constant": false,
      "inputs": [],
      "name": "debugStuff",
      "outputs": [
        {
          "name": "",
          "type": "bytes32"
        },
        {
          "name": "",
          "type": "bytes32"
        },
        {
          "name": "",
          "type": "uint256"
        }
      ],
      "payable": false,
      "stateMutability": "nonpayable",
      "type": "function"
    },
    {
      "constant": false,
      "inputs": [
        {
          "name": "",
          "type": "bytes32"
        },
        {
          "name": "arr",
          "type": "bytes32[]"
        }
      ],
      "name": "consume",
      "outputs": [],
      "payable": false,
      "stateMutability": "nonpayable",
      "type": "function"
    },
    {
      "constant": false,
      "inputs": [],
      "name": "doStuff",
      "outputs": [],
      "payable": false,
      "stateMutability": "nonpayable",
      "type": "function"
    },
    {
      "constant": false,
      "inputs": [
        {
          "name": "name",
          "type": "string"
        }
      ],
      "name": "hashName",
      "outputs": [
        {
          "name": "",
          "type": "bytes32"
        }
      ],
      "payable": false,
      "stateMutability": "nonpayable",
      "type": "function"
    },
    {
      "constant": true,
      "inputs": [
        {
          "name": "id",
          "type": "bytes32"
        }
      ],
      "name": "idToString",
      "outputs": [
        {
          "name": "",
          "type": "string"
        }
      ],
      "payable": false,
      "stateMutability": "pure",
      "type": "function"
    },
    {
      "constant": false,
      "inputs": [
        {
          "name": "",
          "type": "uint256"
        },
        {
          "name": "",
          "type": "bytes32"
        },
        {
          "name": "file",
          "type": "bytes32"
        }
      ],
      "name": "solved",
      "outputs": [],
      "payable": false,
      "stateMutability": "nonpayable",
      "type": "function"
    },
    {
      "inputs": [
        {
          "name": "tb",
          "type": "address"
        },
        {
          "name": "code_address",
          "type": "address"
        },
        {
          "name": "init_hash",
          "type": "bytes32"
        }
      ],
      "payable": false,
      "stateMutability": "nonpayable",
      "type": "constructor"
    },
    {
      "anonymous": false,
      "inputs": [
        {
          "indexed": false,
          "name": "data",
          "type": "bytes32[]"
        }
      ],
      "name": "Success",
      "type": "event"
    }
  ],
  "bytecode": "0x6060604052341561000f57600080fd5b6040516060806111c68339810160405280805190602001909190805190602001909190805190602001909190505082600160006101000a81548173ffffffffffffffffffffffffffffffffffffffff021916908373ffffffffffffffffffffffffffffffffffffffff16021790555081600260006101000a81548173ffffffffffffffffffffffffffffffffffffffff021916908373ffffffffffffffffffffffffffffffffffffffff16021790555080600381600019169055505050506110ea806100dc6000396000f300606060405260043610610078576000357c0100000000000000000000000000000000000000000000000000000000900463ffffffff16806367ef5a371461007d5780637d436d76146100c4578063874f33a11461012b578063af9a3f9b14610140578063b6b0f77b146101b9578063e551528714610259575b600080fd5b341561008857600080fd5b610090610296565b6040518084600019166000191681526020018360001916600019168152602001828152602001935050505060405180910390f35b34156100cf57600080fd5b610129600480803560001916906020019091908035906020019082018035906020019080806020026020016040519081016040528093929190818152602001838360200280828437820191505050505050919050506107df565b005b341561013657600080fd5b61013e61087e565b005b341561014b57600080fd5b61019b600480803590602001908201803590602001908080601f01602080910402602001604051908101604052809392919081815260200183838082843782019150505050505091905050610db2565b60405180826000191660001916815260200191505060405180910390f35b34156101c457600080fd5b6101de600480803560001916906020019091905050610dc8565b6040518080602001828103825283818151815260200191508051906020019080838360005b8381101561021e578082015181840152602081019050610203565b50505050905090810190601f16801561024b5780820380516001836020036101000a031916815260200191505b509250505060405180910390f35b341561026457600080fd5b61029460048080359060200190919080356000191690602001909190803560001916906020019091905050610ea0565b005b60008060006102a3611082565b600080600060056040518059106102b75750595b9080825280602002602001820160405250935060ff6001023373ffffffffffffffffffffffffffffffffffffffff16600102168460008151811015156102f957fe5b90602001906020020190600019169081600019168152505060ff60010260014303401684600181518110151561032b57fe5b906020019060200201906000191690816000191681525050600160009054906101000a900473ffffffffffffffffffffffffffffffffffffffff1673ffffffffffffffffffffffffffffffffffffffff1663d1a9f5be6000548660646000604051602001526040518463ffffffff167c01000000000000000000000000000000000000000000000000000000000281526004018080602001858152602001806020018481526020018381038352600a8152602001807f696e7075742e6461746100000000000000000000000000000000000000000000815250602001838103825285818151815260200191508051906020019060200280838360005b83811015610442578082015181840152602081019050610427565b5050505090500195505050505050602060405180830381600087803b151561046957600080fd5b6102c65a03f1151561047a57600080fd5b5050506040518051905092506000808154809291906001019190505550600160009054906101000a900473ffffffffffffffffffffffffffffffffffffffff1673ffffffffffffffffffffffffffffffffffffffff1663546b48b1600054600260009054906101000a900473ffffffffffffffffffffffffffffffffffffffff16600354876000604051602001526040518563ffffffff167c0100000000000000000000000000000000000000000000000000000000028152600401808581526020018473ffffffffffffffffffffffffffffffffffffffff1673ffffffffffffffffffffffffffffffffffffffff16815260200183600019166000191681526020018260001916600019168152602001945050505050602060405180830381600087803b15156105aa57600080fd5b6102c65a03f115156105bb57600080fd5b505050604051805190509150600160009054906101000a900473ffffffffffffffffffffffffffffffffffffffff1673ffffffffffffffffffffffffffffffffffffffff1663b0ebdbca600160009054906101000a900473ffffffffffffffffffffffffffffffffffffffff1673ffffffffffffffffffffffffffffffffffffffff16635b519132856000604051602001526040518263ffffffff167c0100000000000000000000000000000000000000000000000000000000028152600401808260001916600019168152602001915050602060405180830381600087803b15156106a657600080fd5b6102c65a03f115156106b757600080fd5b50505060405180519050600060016106ce87610dc8565b6000604051602001526040518563ffffffff167c01000000000000000000000000000000000000000000000000000000000281526004018085600019166000191681526020018460ff1681526020018360ff16815260200180602001828103825283818151815260200191508051906020019080838360005b83811015610762578082015181840152602081019050610747565b50505050905090810190601f16801561078f5780820380516001836020036101000a031916815260200191505b5095505050505050602060405180830381600087803b15156107b057600080fd5b6102c65a03f115156107c157600080fd5b50505060405180519050905082828296509650965050505050909192565b8060028151811015156107ee57fe5b90602001906020020151600481600019169055507feece9dc6297c9b1c926901bbded0c1a56a314632f603b11ec3a4eb1c313991d8816040518080602001828103825283818151815260200191508051906020019060200280838360005b8381101561086757808201518184015260208101905061084c565b505050509050019250505060405180910390a15050565b610886611082565b60008060056040518059106108985750595b9080825280602002602001820160405250925060ff6001023373ffffffffffffffffffffffffffffffffffffffff16600102168360008151811015156108da57fe5b90602001906020020190600019169081600019168152505060ff60010260014303401683600181518110151561090c57fe5b906020019060200201906000191690816000191681525050600160009054906101000a900473ffffffffffffffffffffffffffffffffffffffff1673ffffffffffffffffffffffffffffffffffffffff1663d1a9f5be6000548560646000604051602001526040518463ffffffff167c0100000000000000000000000000000000000000000000000000000000028152600401808060200185815260200180602001848152602001838103835260098152602001807f746573742e646174610000000000000000000000000000000000000000000000815250602001838103825285818151815260200191508051906020019060200280838360005b83811015610a23578082015181840152602081019050610a08565b5050505090500195505050505050602060405180830381600087803b1515610a4a57600080fd5b6102c65a03f11515610a5b57600080fd5b5050506040518051905091506000808154809291906001019190505550600160009054906101000a900473ffffffffffffffffffffffffffffffffffffffff1673ffffffffffffffffffffffffffffffffffffffff1663546b48b1600054600260009054906101000a900473ffffffffffffffffffffffffffffffffffffffff16600354866000604051602001526040518563ffffffff167c0100000000000000000000000000000000000000000000000000000000028152600401808581526020018473ffffffffffffffffffffffffffffffffffffffff1673ffffffffffffffffffffffffffffffffffffffff16815260200183600019166000191681526020018260001916600019168152602001945050505050602060405180830381600087803b1515610b8b57600080fd5b6102c65a03f11515610b9c57600080fd5b505050604051805190509050600160009054906101000a900473ffffffffffffffffffffffffffffffffffffffff1673ffffffffffffffffffffffffffffffffffffffff1663b0ebdbca600160009054906101000a900473ffffffffffffffffffffffffffffffffffffffff1673ffffffffffffffffffffffffffffffffffffffff16635b519132846000604051602001526040518263ffffffff167c0100000000000000000000000000000000000000000000000000000000028152600401808260001916600019168152602001915050602060405180830381600087803b1515610c8757600080fd5b6102c65a03f11515610c9857600080fd5b5050506040518051905060006001610caf86610dc8565b6000604051602001526040518563ffffffff167c01000000000000000000000000000000000000000000000000000000000281526004018085600019166000191681526020018460ff1681526020018360ff16815260200180602001828103825283818151815260200191508051906020019080838360005b83811015610d43578082015181840152602081019050610d28565b50505050905090810190601f168015610d705780820380516001836020036101000a031916815260200191505b5095505050505050602060405180830381600087803b1515610d9157600080fd5b6102c65a03f11515610da257600080fd5b5050506040518051905050505050565b6000610dc18260006008610f85565b9050919050565b610dd0611096565b610dd86110aa565b600060408051805910610de85750595b9080825280601f01601f19166020018201604052509150600090505b6040811015610e96576041600f8260040260020a8660019004811515610e2657fe5b0416017f0100000000000000000000000000000000000000000000000000000000000000028282815181101515610e5957fe5b9060200101907effffffffffffffffffffffffffffffffffffffffffffffffffffffffffffff1916908160001a9053508080600101915050610e04565b8192505050919050565b600160009054906101000a900473ffffffffffffffffffffffffffffffffffffffff1673ffffffffffffffffffffffffffffffffffffffff16632e15ba6382306040518363ffffffff167c01000000000000000000000000000000000000000000000000000000000281526004018083600019166000191681526020018273ffffffffffffffffffffffffffffffffffffffff1673ffffffffffffffffffffffffffffffffffffffff16815260200192505050600060405180830381600087803b1515610f6c57600080fd5b6102c65a03f11515610f7d57600080fd5b505050505050565b6000808214156110285783518310610fa1576000600102611021565b8383815181101515610faf57fe5b9060200101517f010000000000000000000000000000000000000000000000000000000000000090047f0100000000000000000000000000000000000000000000000000000000000000027f010000000000000000000000000000000000000000000000000000000000000090046001025b905061107b565b611036848460018503610f85565b61104c856001850360020a860160018603610f85565b604051808360001916600019168152602001826000191660001916815260200192505050604051809103902090505b9392505050565b602060405190810160405280600081525090565b602060405190810160405280600081525090565b6020604051908101604052806000815250905600a165627a7a723058209f957e9afaf210f2860f90666cf7cd03fe3d707c1d959097ef3381ecc9133ae60029",
  "source": "\npragma solidity ^0.4.16;\n\ninterface TrueBit {\n\n   function createFileWithContents(string name, uint nonce, bytes32[] arr, uint sz) public returns (bytes32);\n   function getSize(bytes32 id) public view returns (uint);\n   function forwardData(bytes32 id, address a) public;\n   \n   function idToString(bytes32 id) public pure returns (string);\n   function getInitHash(bytes32 bid) public view returns (bytes32);\n   function makeSimpleBundle(uint num, address code, bytes32 code_init, bytes32 file_id) public returns (bytes32);\n   function add(bytes32 init, /* CodeType */ uint8 ct, /* Storage */ uint8 cs, string stor) public returns (uint);\n   // function add(bytes32 init, uint8 ct, uint8 cs) public returns (uint);\n   \n}\n\ncontract TestUser {\n   uint nonce;\n   TrueBit truebit;\n\n   address code;\n   bytes32 init;\n\n   bytes32 val;\n\n   event Success(bytes32[] data);\n\n   function TestUser(address tb, address code_address, bytes32 init_hash) public {\n      truebit = TrueBit(tb);\n      code = code_address;\n      init = init_hash;\n   }\n   \n      \n   function idToString(bytes32 id) public pure returns (string) {\n      bytes memory res = new bytes(64);\n      for (uint i = 0; i < 64; i++) res[i] = bytes1(((uint(id) / (2**(4*i))) & 0xf) + 65);\n      return string(res);\n   }\n\n   function doStuff() public {\n      bytes32[] memory arr = new bytes32[](5);\n      arr[0] = bytes32(msg.sender) & 0xff;\n      arr[1] = block.blockhash(block.number-1) & 0xff;\n      bytes32 file = truebit.createFileWithContents(\"test.data\", nonce, arr, 100);\n      nonce++;\n      bytes32 bundle = truebit.makeSimpleBundle(nonce, code, init, file);\n      \n      truebit.add(truebit.getInitHash(bundle), 0, 1, idToString(bundle));\n   }\n   \n   function makeMerkle(bytes arr, uint idx, uint level) internal returns (bytes32) {\n      if (level == 0) return idx < arr.length ? bytes32(uint(arr[idx])) : bytes32(0);\n      else return keccak256(makeMerkle(arr, idx, level-1), makeMerkle(arr, idx+(2**(level-1)), level-1));\n   }\n\n   // assume 256 bytes?\n   function hashName(string name) public returns (bytes32) {\n      return makeMerkle(bytes(name), 0, 8);\n   }\n\n   function debugStuff() public returns (bytes32, bytes32, uint) {\n      bytes32[] memory arr = new bytes32[](5);\n      arr[0] = bytes32(msg.sender) & 0xff;\n      arr[1] = block.blockhash(block.number-1) & 0xff;\n      bytes32 file = truebit.createFileWithContents(\"input.data\", nonce, arr, 100);\n      nonce++;\n      bytes32 bundle = truebit.makeSimpleBundle(nonce, code, init, file);\n      \n      uint id = truebit.add(truebit.getInitHash(bundle), 0, 1, idToString(bundle));\n      // uint id = truebit.add(0, 0, 1, \"asd\");\n      return (file, bundle, id);\n   }\n   \n   function consume(bytes32 /* file_id */, bytes32[] arr) public {\n      val = arr[2];\n      Success(arr);\n   }\n   \n   // this is the callback name\n   function solved(uint /* id */, bytes32 /* result */, bytes32 file) public {\n      // could check the task id\n      truebit.forwardData(file, this);\n   }\n\n}\n\n\n",
  "sourcePath": "/home/hswick/projects/webasm-solidity/contracts/testUser.sol",
  "compiler": {
    "name": "solc",
    "version": "0.4.18+commit.9cf6e910.Emscripten.clang"
  },
  "schemaVersion": "1.0.1",
  "updatedAt": "2018-01-19T04:57:05.435Z"
}