{
  "contractName": "Test",
  "abi": [
    {
      "constant": false,
      "inputs": [
        {
          "name": "hint",
          "type": "uint256"
        },
        {
          "name": "r1",
          "type": "uint256"
        },
        {
          "name": "r2",
          "type": "uint256"
        },
        {
          "name": "r3",
          "type": "uint256"
        }
      ],
      "name": "test",
      "outputs": [
        {
          "name": "",
          "type": "uint256"
        }
      ],
      "payable": false,
      "stateMutability": "nonpayable",
      "type": "function"
    }
  ],
  "bytecode": "0x6060604052341561000f57600080fd5b6101968061001e6000396000f300606060405260043610610041576000357c0100000000000000000000000000000000000000000000000000000000900463ffffffff1680633f03c88914610046575b600080fd5b341561005157600080fd5b6100826004808035906020019091908035906020019091908035906020019091908035906020019091905050610098565b6040518082815260200191505060405180910390f35b60008060028614806100aa5750600386145b806100b55750600486145b806100c05750600586145b156100dc57838514806100d257508284145b156100db578490505b5b60028614806100eb5750600386145b806100f65750600486145b806101015750600586145b1561011d578385148061011357508284145b1561011c578490505b5b600286148061012c5750600386145b806101375750600486145b806101425750600586145b1561015e578385148061015457508284145b1561015d578490505b5b809150509493505050505600a165627a7a72305820c1c08a0cd12e34194016e5e39419271e850874a1fcf9a5075dfb85e9ccc1a25f0029",
  "source": "pragma solidity ^0.4.15;\n\ncontract Test {\n    function test(uint hint, uint r1, uint r2, uint r3) returns (uint) {\n        uint res;\n        if (hint == 2 || hint == 3 || hint == 4 || hint == 5) {\n            if (r1 == r2 || r2 == r3) res = r1;\n        }\n        if (hint == 2 || hint == 3 || hint == 4 || hint == 5) {\n            if (r1 == r2 || r2 == r3) res = r1;\n        }\n        if (hint == 2 || hint == 3 || hint == 4 || hint == 5) {\n            if (r1 == r2 || r2 == r3) res = r1;\n        }\n        return res;\n    }\n}\n",
  "sourcePath": "/home/hswick/projects/webasm-solidity/contracts/slow.sol",
  "compiler": {
    "name": "solc",
    "version": "0.4.18+commit.9cf6e910.Emscripten.clang"
  },
  "schemaVersion": "1.0.1",
  "updatedAt": "2018-01-19T05:22:25.935Z"
}